:100000000C9468030C9485030C9485030C9485036D
:100010000C9485030C9485030C9485030C94850340
:100020000C9485030C9485030C9485030C94850330
:100030000C9485030C9485030C9485030C94850320
:100040000C9485030C9485030C9485030C94850310
:100050000C9485030C9485030C9485030C94850300
:100060000C9485030C9485030C9485030C948503F0
:100070000060603F3F606000001818187E3C180068
:1000800000000000005C00000C000C007C287C28B4
:1000900058DC68002410480028542840000C000058
:1000A000007884008478000054385400107C1000DC
:1000B00080400000101010000040000060100C0094
:1000C00038543800487C40004864580044542C00A0
:1000D0001C107C005C5424003854240064140C0070
:1000E00068542C0048543800004800008048000044
:1000F0001028440028282800442810000454080030
:1001000038445C00781478007C5428003844280077
:100110007C4438007C5444007C140400384474004F
:100120007C107C00447C440020403C007C106C002F
:100130007C4040007C187C0078103C00384438003B
:100140007C1408003844B8007C146800485424002B
:10015000047C04007C407C003C603C007C307C00E3
:100160006C106C000C700C0064544C00007C44005B
:100170000C106000447C00000804080080808000AF
:1001800000040800304878007C48300030484800BF
:1001900030487C00306850001078140090A8780037
:1001A0007C08700050744000808074007C106800EF
:1001B000447C4000781078007808700030483000A7
:1001C000F82810003048F80078100800505828002F
:1001D000083C4800384078003840380078207800E3
:1001E0004830480098A0780048685800107884008B
:1001F000007C00008478100008040804000000005F
:100200000000005F00000007000700147F147F1447
:10021000242A7F2A1223130864623649552250008B
:1002200005030000001C2241000041221C00082A96
:100230001C2A0808083E080800503000000808087A
:100240000808006060000020100804023E51494583
:100250003E00427F400042615149462141454B31B9
:100260001814127F1027454545393C4A4949300149
:10027000710905033649494936064949291E0036A0
:1002800036000000563600000008142241141414F1
:10029000141441221408000201510906324979411F
:1002A0003E7E1111117E7F494949363E414141222E
:1002B0007F4141221C7F494949417F090901013E93
:1002C000414151327F0808087F00417F41002040B2
:1002D000413F017F081422417F404040407F02049B
:1002E000027F7F0408107F3E4141413E7F0909099A
:1002F000063E4151215E7F09192946464949493147
:1003000001017F01013F4040403F1F2040201F7FEF
:100310002018207F631408146303047804036151D8
:1003200049454300007F4141020408102041417FBC
:100330000000040201020440404040400001020469
:100340000020545454787F4844443838444444206E
:10035000384444487F3854545418087E0901020830
:100360001454543C7F0804047800447D400020402D
:10037000443D00007F10284400417F40007C041869
:1003800004787C0804047838444444387C141414F9
:1003900008081414187C7C08040408485454542099
:1003A000043F4440203C4040207C1C2040201C3C1A
:1003B0004030403C44281028440C5050503C446489
:1003C000544C44000836410000007F0000004136D4
:1003D000080002010302010000000000000000000C
:1003E000065F5F0600000000070700070700001413
:1003F0007F7F147F7F1400242E6B6B3A120000461F
:100400006630180C666200307A4F5D377A48000417
:1004100007030000000000001C3E634100000000D4
:1004200041633E1C000000082A3E1C1C3E2A0808AE
:10043000083E3E0808000000A0E060000000000840
:100440000808080808000000006060000000006064
:1004500030180C060301003E7F594D7F3E000042DC
:10046000427F7F40400000627359496F660000225E
:100470006349497F360000181C16137F7F10002740
:100480006745457D3900003C7E4B497930000003CB
:100490006371190F070000367F49497F3600000657
:1004A0004F49693F1E000000006C6C000000000016
:1004B000A0EC6C00000000081C3663410000001432
:1004C00014141414140000004163361C08000002C8
:1004D0000351590F0600003E7F415D5D1F1E007CE9
:1004E0007E13137E7C0000417F7F49497F36001CCC
:1004F0003E634141632200417F7F41637F1C004195
:100500007F7F495D416300417F7F491D0103001CDE
:100510003E6341517372007F7F08087F7F000000B7
:10052000417F7F41000000307040417F3F0100412A
:100530007F7F081C776300417F7F41406070007FB0
:100540007F060C067F7F007F7F060C187F7F001CD4
:100550003E6341633E1C00417F7F49090F06001E38
:100560003F21717F5E0000417F7F19396F46002671
:10057000674D597B32000003417F7F410300007FBC
:100580007F40407F7F00001F3F60603F1F00007F73
:100590007F3018307F7F0063771C081C776300076B
:1005A0004F78784F0700006773594D47637100001B
:1005B0007F7F41410000000103060C1830600000FD
:1005C00041417F7F000000080C0603060C080080F4
:1005D000808080808080800000030704000000206D
:1005E0007454543C784000413F7F44447C38003888
:1005F0007C44446C280000307848493F7F400038F4
:100600007C54545C180000487E7F49030200009827
:10061000BCA4A4F87C0400417F7F08047C7800001F
:10062000447D7D4000000040C484FD7D0000004109
:100630007F7F10386C440000417F7F400000007CC9
:100640007C0C180C7C78007C7C04047C78000038DE
:100650007C44447C38000084FCF8A4243C18001836
:100660003C24A4F8FC8400447C78441C1800004816
:100670005C54547424000000043E7F442400003C79
:100680007C40403C7C40001C3C60603C1C00003CCA
:100690007C6030607C3C00446C3810386C44009CBA
:1006A000BCA0A0FC7C00004C64745C4C640000089E
:1006B000083E7741410000000000777700000041CC
:1006C00041773E0808000002030103020301000015
:1006D00011241FBECFEFD4E0DEBFCDBF12E0A0E0FB
:1006E000B1E0E8EEFAE102C005900D92AA32B1073E
:1006F000D9F722E0AAE2B2E001C01D92A53CB20700
:10070000E1F70E9487030C94720D0C9400008FE1B6
:1007100090E00E94AD036FEB73E084EB93E00E94E6
:1007200086080E94C3030E945D040E948D040E94FB
:1007300039050E9480050E94FA070E94B707FFCF83
:100740008EB588608EBD8EB585608EBD80EC8ABD0D
:1007500082E18BBD80E489BF089590BD89B988E1AD
:100760008AB98EE880BD08955D9BFECF8A3011F076
:100770008CB908959DE09CB95D9BFECFF9CF5F9B3E
:10078000FECF8CB1089585B7806885BF80B7877C20
:1007900080BF80B7806280BFE0E0F8E11192E11590
:1007A00080E2F807D9F70895CF92DF92EF92FF9297
:1007B0000F931F93CF93DF938CE091E00E94E708A3
:1007C0000E9476086C010E947B08D0E0C0E010E037
:1007D00000E00F2EF2E2EF2EF1E0FF2EF02D05C02B
:1007E0002196C11598E0D907F1F00E947608FE0124
:1007F000F85E80832081281799F399279F938F9320
:100800001F922F93DF93CF93FF92EF920E94D10814
:100810000F5F1F4F8DB79EB708960FB6F8949EBF17
:100820000FBE8DBFDDCFC6010E947B08D0E0C0E0C7
:10083000F12CE12C0F2EFBE5CF2EF1E0DF2EF02D79
:1008400005C02196C11598E0D907F1F00E947608FD
:10085000FE01F85E20812817A1F399279F938F93BB
:100860001F922F93DF93CF93DF92CF920E94D108F4
:100870008FEFE81AF80A8DB79EB708960FB6F8946E
:100880009EBF0FBE8DBFDDCFFF92EF921F930F93E0
:1008900088E991E09F938F930E94D1080F900F9069
:1008A0000F900F900F900F90DF91CF911F910F91AC
:1008B000FF90EF90DF90CF9008958D9A8EB5887F4E
:1008C0008EBD8EB588608EBD8FB580648FBD1BBC1C
:1008D00081E08ABD8EB5887F8EBD8EB581608EBD6C
:1008E0003298109239020895E0910001F0910101CF
:1008F000108281E28A95F1F70000849BFECFA091DF
:100900000001B0910101EEE2F2E022E332E08D91CC
:100910008193E217F307D9F708950E947404EEE279
:10092000F2E0818180933802808180933A020895B9
:100930000F931F93CF93DF930E947404EAE2F2E0D7
:10094000CEE2D2E0498180913802481B550B24E663
:10095000249FC001259F900D112466E570E00E9440
:1009600002086083488180913A02481B550B249FFE
:10097000C001259F900D11246EE570E00E940208D1
:1009800061834B814F57550B249FC001259F900DCC
:1009900011240FE710E0B8010E94020862834A8127
:1009A0004F57550B249FC001259F900D1124B8016E
:1009B0000E94020863832A9B0AC0809139028E7FBD
:1009C00080933902DF91CF911F910F91089580910B
:1009D0003902816080933902F5CF0E949804EAE2DF
:1009E000F2E08381282F082E000C330B3F938F9366
:1009F0008281282F082E000C330B3F938F93818127
:100A0000282F082E000C330B3F938F938081282FC3
:100A1000082E000C330B3F938F9381EF91E09F934F
:100A20008F930E94D1088DB79EB70A960FB6F8949F
:100A30009EBF0FBE8DBF0895EAE2F2E080819181F2
:100A4000843110F4943148F0981760F084E090E01D
:100A500090933302809332020895109233021092E1
:100A60003202089581E090E0909333028093320245
:100A7000089587B38E6B87BBBE9881E58DB90895C5
:100A80006130710569F038F06230710571F08FB92D
:100A9000779BFECF0895C29898B39A6098BBF7CF22
:100AA000C39898B3966098BBF2CFC19898B39C60F6
:100AB00098BBEDCFC49A61E070E00E9440050895B4
:100AC000C49861E070E00E9440050895CF93DF93E1
:100AD000D0E08D2F806B0E94600582E00E9460054F
:100AE0008AE10E946005C0E08CEC0E945A05CF5F4D
:100AF000C038D1F7DF5FD83061F7DF91CF9108952B
:100B0000CF93DF938EEA0E94600581EA0E94600520
:100B10008AED0E94600582E10E94600588EC0E94D7
:100B2000600588EA0E9460058FE30E94600585EDFC
:100B30000E94600580E80E94600581E80E946005CF
:100B40008FEF0E94600589ED0E94600581E20E949E
:100B5000600580E20E94600582E00E9460058BEDE6
:100B60000E94600580E30E9460058DEA0E94600596
:100B700080E00E94600584EA0E94600586EA0E9487
:100B800060058FEA0E946005D0E08D2F806B0E9487
:100B9000600580E00E94600580E10E946005C0E081
:100BA00080E00E945A05CF5FC038D1F7DF5FD830B0
:100BB00061F7DF91CF910895893008F0089580554D
:100BC0000E946005FBCFCF93882354F0C82F8F700D
:100BD0000E9460058C2F82958F70805F0E94600557
:100BE000CF910895CF93DF93D0E08D2F806B0E943B
:100BF000600580E00E94600580E10E946005C0E021
:100C000080E00E945A05CF5FC038D1F7DF5FD8304F
:100C100061F7DF91CF910895CF93C62F0E94DC0535
:100C20008C2F0E94E305CF910895EF92FF920F93CE
:100C30001F93CF93DF93EC01EBE3F2E08BEB92E0B9
:100C40001192E817F907E1F78881882309F496C023
:100C500030E0022F10E053C0832F90E0DC01AA0F98
:100C6000BB1FAA0FBB1FA80FB91FA00FB11FA55C08
:100C7000BD4F90E080E0E8810E2E000CFF0B7F015D
:100C800050E2E51AF108F701EE0FFF1FEE0FFF1F0C
:100C9000EE0DFF1DE80FF91FE450FE4FE491ED93B8
:100CA00001968530910539F725C0832F90E0880F94
:100CB000991F880F991F880F991F800F911F855CBE
:100CC0009D4FB0E0A0E0E8810E2E000CFF0BB09726
:100CD000EE0FFF1FEE0FFF1FEE0FFF1FEA0FFB1FB0
:100CE000E952FC4F5491FC015193CF011196A83069
:100CF000B10549F73F5F21968881882339F1653036
:100D000009F4AACF683089F26430A1F7A32FB0E0CC
:100D1000AA0FBB1FAA0FBB1FA00FB11FA55CBD4F21
:100D200090E080E0E8810E2E000CFF0BB097EE0FF4
:100D3000FF1FEE0FFF1FE80FF91FE058FF4FE49170
:100D4000ED9301968430910569F7D4CF369FB001B9
:100D500011241616170694F4F0E84F9FA0011124F1
:100D6000A22FB0E0A55CBD4F620F8D91FA01E20F9A
:100D7000F11DF85E80832F5F2613F7CFDF91CF91AF
:100D80001F910F91FF90EF900895EF92FF920F93B4
:100D90001F93CF93DF93EC01EBEBF2E0ABE3B2E018
:100DA0008FEF8D93AE17BF07E1F78881882309F491
:100DB00089C050E0022F10E05AC0852F90E09C01BE
:100DC000220F331F220F331F280F391F200F311F0F
:100DD000255C3D4F90E080E0E8810E2E000CFF0B7B
:100DE0007F0170E2E71AF108F701EE0FFF1FEE0F27
:100DF000FF1FEE0DFF1DE80FF91FE450FE4FE491B9
:100E00007E2F7095F90171939F01019685309105B0
:100E100019F728C0852F90E0880F991F880F991F18
:100E2000880F991F800F911F855C9D4F30E020E057
:100E3000E8810E2E000CFF0BB097EE0FFF1FEE0F98
:100E4000FF1FEE0FFF1FE20FF31FE952FC4FE4916B
:100E50007E2F7095FC017193CF012F5F3F4F28309B
:100E6000310531F75F5F21968881882359F165301C
:100E700009F4A3CF683071F26430A1F7252F30E078
:100E8000220F331F220F331F200F311F255C3D4FD0
:100E900090E080E0E8810E2E000CFF0BB097EE0F83
:100EA000FF1FEE0FFF1FE80FF91FE058FF4FE491FF
:100EB0007E2F7095F90171939F0101968430910501
:100EC00049F7D0CFF0E84F9F90011124EBE3F2E017
:100ED0002B5332402150384E8191E901CE0FDF1F54
:100EE0008883EA17FB07C1F7DF91CF911F910F911C
:100EF000FF90EF9008950F931F93CF93DF930E947D
:100F0000DC05CBE3D2E00BEB12E089910E945A059D
:100F1000C017D107D1F7DF91CF911F910F9108959D
:100F200090E8899FF0011124E60FF11DF85E4083DF
:100F30000895CF93DF932BEB32E0ABE3B2E01D9249
:100F4000A217B307E1F790E8899F90011124EBE322
:100F5000F2E02B533240385EE901CE0FDF1F88816B
:100F60008193EA17FB07C1F7DF91CF910895CF93E3
:100F7000C0E08C2F0E9499078C2F0E947B07CF5FC7
:100F8000C830B9F7CF910895CF93DF932BEB32E0C0
:100F9000EBE3F2E01192E217F307E1F782309105FB
:100FA00030F5FC01EE0FFF1FEE0FFF1FEE0FFF1FCE
:100FB000E059FF4F242F30E0E901C55CDD4F2D5B88
:100FC0003D4FDE0184918D933196A217B307D1F77F
:100FD00080E8689FB001112498E0940F8991FB018B
:100FE000E40FF11DF85E80834F5F4913F7CFDF9167
:100FF000CF91089527E140E068E08FE192E00E9400
:10100000C506089597FB072E16F4009407D077FDC8
:1010100009D00E94160807FC05D03EF490958195F2
:101020009F4F0895709561957F4F0895AA1BBB1B34
:1010300051E107C0AA1FBB1FA617B70710F0A61BD8
:10104000B70B881F991F5A95A9F780959095BC01F9
:10105000CD0108958F929F92AF92BF92CF92DF926F
:10106000EF92FF92CF93DF93EC01688179818A81BF
:101070009B81611571058105910521F464E279ED8B
:101080008BE597E02DE133EF41E050E00E94D80C72
:1010900049015A019B01AC01A7EAB1E40E94F70C97
:1010A0006B017C01ACEEB4EFA50194010E94050D2B
:1010B000DC01CB018C0D9D1DAE1DBF1DB7FF03C014
:1010C0000197A109B04888839983AA83BB839F773E
:1010D000DF91CF91FF90EF90DF90CF90BF90AF90D6
:1010E0009F908F9008950E942A08089582E091E0D1
:1010F0000E942A080895B0E0A0E080930201909336
:101100000301A0930401B093050108950F931F9369
:10111000CF93DF93009759F46115710541F4F0E026
:10112000E0E0CF01DF91CF911F910F9108958B01E6
:10113000EC016EE070E081E090E00E94EC0AFC01BE
:10114000892B69F380E883830115110571F01387FA
:10115000028781E883838091BB029091BC02892B36
:1011600021F4F093BC02E093BB022097D1F2D18727
:10117000C0878381826083838091BD029091BE028B
:10118000892B79F6F093BE02E093BD028091BF02F5
:101190009091C002892B29F6F093C002E093BF0220
:1011A000C0CFB0E0A0E0E7EDF8E00C941A0DAE017E
:1011B0004B5F5F4FFA0161917191AF018091BD0268
:1011C0009091BE020E941209E2E00C94360D0F933A
:1011D0001F93CF93DF93E091BD02F091BE02238174
:1011E000EC0110E000E021FD08C00FEF1FEF14C07C
:1011F0000995892B11F00FEF1FEF89916091BD02C6
:101200007091BE02DB011896ED91FC918111F0CF37
:101210008AE00995892B49F7C801DF91CF911F9189
:101220000F910895ABE0B0E0E8E1F9E00C940A0D0D
:101230007C013B018A01FC0117821682838181FFB8
:10124000C8C1CE0101965C01F7019381F30193FDC2
:10125000859193FF81913F01882309F453C1853221
:1012600039F493FD859193FF81913F01853229F4F3
:10127000B70190E00E944A0CE7CF912C212C312C31
:10128000FFE1F31538F08B3211F190F4803209F15F
:10129000833229F137FC3CC020ED280F2A3050F56D
:1012A00036FE20C08AE0989E200D1124922E06C0A2
:1012B0008D3291F0803371F7689430F8F30193FD2B
:1012C000859193FF81913F018111DACF21C068940C
:1012D00031F8689432F8F2CF689433F8EFCF68941D
:1012E00034F8ECCFEAE02E9E200D1124222E6894D3
:1012F00035F8E4CF8E3229F436FC04C1689436F810
:10130000DDCF8C3619F4689437F8D8CF8836B1F22F
:10131000982F9F7D95549330E0F08336A1F1833769
:10132000C1F1833509F063C02801F2E04F0E511C72
:10133000F801C080D180692D70E036FC02C06FEFEB
:101340007FEFC6010E942D0C4C01689437F8820192
:101350000AC00C5F1F4FFFE3F98388248394912C0C
:101360006501E89437F833FE2DC0522C81149104A6
:1013700071F5552009F468CFB70180E290E00E9432
:101380004A0C5A94F6CFF801808189830E5F1F4F73
:10139000E4CF2801F2E04F0E511CF801C080D1804B
:1013A000692D70E036FC02C06FEF7FEFC6010E942E
:1013B0003F0C4C018201D5CFB70180E290E00E9442
:1013C0004A0C2A942814190409F0B0F7CECFF6017C
:1013D00037FC859137FE81916F01B70190E00E9443
:1013E0004A0C51105A94F1E08F1A9108BFCF8436FD
:1013F00019F0893609F077C0F80137FE6BC06081BB
:101400007181828193810C5F1F4FF32DFF763F2EF8
:1014100097FF09C090958095709561957F4F8F4F8C
:101420009F4F689437F82AE030E0A5010E947A0CBB
:10143000C82ECA188C2C432C36FE0CC0E89440F8F9
:10144000C91440F434FE05C032FC03C0F32DFE7E07
:101450004F2E892C44FE95C0FE01EC0DF11D8081BC
:10146000803309F087C0242D297E422E842D887078
:10147000582E43FC95C040FE8FC09C2C821418F45B
:101480002C0C922C981844FE91C0B70180E390E098
:101490000E944A0C42FE09C088E790E041FE02C06B
:1014A00088E590E0B7010E944A0CC91408F48AC08C
:1014B000CA94D12C9FEFC91AD90ACA0CDB1CF601B9
:1014C00082916F01B70190E00E944A0CAC14BD04F8
:1014D000B1F74FCF60817181072E000C880B990BFB
:1014E0000E5F1F4F92CFD32CE894D4F82AE030E05F
:1014F000853739F1232D297FD22E8F3601F148F41B
:101500008835A9F0F701868197812B96E2E10C944A
:10151000260D803749F08837A9F7D4FE02C06894B9
:10152000D2F820E130E00DC06894D4F8F6CF34FE54
:1015300003C0822F8660D82E20E132E002C028E06E
:1015400030E0F801D7FE0FC0608171818281938104
:101550000C5F1F4FA5010E947A0CC82ECA183D2CA3
:10156000E89437F867CF6081718190E080E00E5F8A
:101570001F4FF0CF42FC02C0839478CF83948394B2
:1015800075CF842D867809F471CFF6CFB70180E24C
:1015900090E00E944A0C83948214C0F3512C73CFC4
:1015A000522C5818821408F46ECFF8CF842D867808
:1015B00009F47BCF8BE241FE80E247FC8DE2B7016C
:1015C00090E071CFB70180E390E00E944A0C9A94BA
:1015D0006CCF8FEF9FEF99CF0F931F93CF93DF9334
:1015E000869F8001879F100D969F100D1124C801C2
:1015F0000E94080BEC01009729F0A80170E060E060
:101600000E94380CCE01DF91CF911F910F91089568
:101610000F931F93CF93DF938230910510F482E0F4
:1016200090E0E091C302F091C40230E020E0B0E02D
:10163000A0E0309799F42115310509F44AC0281B20
:10164000390B24303105D8F58A819B8161157105EC
:1016500089F1FB0193838283FE0111C04081518196
:101660000281138148175907E0F04817590799F488
:10167000109761F012960C93129713961C93329662
:10168000CF01DF91CF911F910F9108950093C30275
:101690001093C402F4CF2115310551F042175307BE
:1016A00038F0A901DB019A01BD01DF01F801C1CFCA
:1016B000EF01F9CF9093C4028093C302CDCFFE0116
:1016C000E20FF31F819391932250310939832883CC
:1016D000D7CF2091C1023091C202232B41F4209137
:1016E0000801309109013093C2022093C102209178
:1016F0000601309107012115310541F42DB73EB7A0
:1017000040910A0150910B01241B350BE091C1025D
:10171000F091C202E217F307A0F42E1B3F0B28172B
:10172000390778F0AC014E5F5F4F2417350748F05A
:101730004E0F5F1F5093C2024093C1028193919359
:101740009FCFF0E0E0E09CCFCF93DF930097E9F0EC
:10175000FC01329713821282A091C302B091C4029D
:10176000ED0130E020E01097A1F420813181820F5B
:10177000931F2091C1023091C2022817390709F046
:1017800061C0F093C202E093C102DF91CF9108954E
:10179000EA01CE17DF07E8F54A815B819E0141151A
:1017A0005105B1F7E901FB83EA8349915991C40FCF
:1017B000D51FEC17FD0761F4808191810296840F9B
:1017C000951FE90199838883828193819B838A8312
:1017D000F0E0E0E012968D919C9113970097B9F597
:1017E0002D913C911197CD010296820F931F20916C
:1017F000C1023091C2022817390739F6309751F5E6
:101800001092C4021092C302B093C202A093C1020C
:10181000BCCFD383C28340815181840F951FC817E9
:10182000D90761F44E5F5F4F88819981480F591F36
:10183000518340838A819B81938382832115310563
:1018400009F0B0CFF093C402E093C3029ECFFD0134
:10185000DC01C0CF13821282D7CFFC01059061500A
:1018600070400110D8F7809590958E0F9F1F0895B6
:10187000DC0101C06D9341505040E0F70895FC0138
:101880006150704001900110D8F7809590958E0FAF
:101890009F1F08950F931F93CF93DF93182F092F46
:1018A000EB018B8181FD09C01FEF0FEF812F902F7E
:1018B000DF91CF911F910F91089582FF14C02E8167
:1018C0003F818C819D81281739073CF4E881F9819B
:1018D000CF0101969983888310838E819F81019621
:1018E0009F838E83E3CFE885F985812F0995892B26
:1018F000A1F3DACFFA01AA27283051F1203181F182
:10190000E8946F936E7F6E5F7F4F8F4F9F4FAF4F07
:10191000B1E03ED0B4E03CD0670F781F891F9A1F1A
:10192000A11D680F791F8A1F911DA11D6A0F711DCE
:10193000811D911DA11D20D009F468943F912AE0DA
:10194000269F11243019305D3193DEF6CF010895C2
:10195000462F4770405D4193B3E00FD0C9F7F6CFF3
:10196000462F4F70405D4A3318F0495D31FD4052BB
:10197000419302D0A9F7EACFB4E0A6959795879551
:1019800077956795BA95C9F7009761057105089530
:101990009B01AC010A2E06945795479537952795DC
:1019A000BA95C9F7620F731F841F951FA01D089574
:1019B000052E97FB1EF400940E94EF0C57FD07D0F4
:1019C0000E94410D07FC03D04EF40C94EF0C50958F
:1019D0004095309521953F4F4F4F5F4F089590951B
:1019E0008095709561957F4F8F4F9F4F08950E940E
:1019F000630DA59F900DB49F900DA49F800D911D28
:101A000011240895B7FF0C94F70C0E94F70C821B69
:101A1000930B08952F923F924F925F926F927F9215
:101A20008F929F92AF92BF92CF92DF92EF92FF92EE
:101A30000F931F93CF93DF93CDB7DEB7CA1BDB0B9A
:101A40000FB6F894DEBF0FBECDBF09942A8839883F
:101A500048885F846E847D848C849B84AA84B98446
:101A6000C884DF80EE80FD800C811B81AA81B98152
:101A7000CE0FD11D0FB6F894DEBF0FBECDBFED0166
:101A80000895A1E21A2EAA1BBB1BFD010DC0AA1FBF
:101A9000BB1FEE1FFF1FA217B307E407F50720F0D7
:101AA000A21BB30BE40BF50B661F771F881F991F52
:101AB0001A9469F760957095809590959B01AC019B
:101AC000BD01CF010895A29FB001B39FC001A39FA4
:101AD000700D811D1124911DB29F700D811D112467
:081AE000911D0895F894FFCF59
:101AE8000010010000000000C5022000537461725C
:101AF80074696E67205352414D20746573742E2E9D
:101B08002E0057726974652070686173652065726C
:101B1800726F723A206578745F72616D5B25346408
:101B28005D203D2025303258202873686F756C641D
:101B38002062652025303258290A0052657472697E
:101B48006576616C207068617365206572726F726A
:101B58003A206578745F72616D5B2534645D203D61
:101B68002025303258202873686F756C64206265B0
:101B78002025303258290A005352414D207465738C
:101B88007420636F6D706C65746564207769746820
:101B9800200A253464206572726F727320696E2082
:101BA800777269746520706861736520616E64205E
:101BB8000A253464206572726F727320696E207210
:101BC800657472696576616C2070686173650A0A6C
:101BD800004A6F79737469636B3A202533642C204B
:101BE80025336420202020202020202020546F75B9
:101BF80063683A202533642C202533640D0A004D90
:0A1C080041494E20204D454E550085
:00000001FF
