:100000000C9438000C9442000C9442000C94420072
:100010000C9442000C9442000C9442000C94420058
:100020000C9442000C9442000C9442000C94420048
:100030000C9442000C9442000C9442000C94420038
:100040000C9442000C9442000C9442000C94420028
:100050000C9442000C9442000C9442000C94420018
:100060000C9442000C9442000C9442000C94420008
:1000700011241FBECFEFD4E0DEBFCDBF0E944400ED
:100080000C94A4000C940000CF93DF9300D000D018
:10009000CDB7DEB719821A821B821C8282E08ABB2E
:1000A0000F2EF0E3CF2EF5E7DF2EE12CF12CF02D13
:1000B00012E00BC089819A81AB81BC810196A11DA0
:1000C000B11D89839A83AB83BC8369817A818B81DB
:1000D0009C81A70196010E948200672B682B692BE7
:1000E00049F78BB381278BBBE5CF8EB588608EBD7A
:1000F0008EB585608EBD80EC8ABD82E18BBD80E4CB
:1001000089BF0895A1E21A2EAA1BBB1BFD010DC0D9
:10011000AA1FBB1FEE1FFF1FA217B307E407F507B7
:1001200020F0A21BB30BE40BF50B661F771F881F93
:10013000991F1A9469F760957095809590959B0129
:0C014000AC01BD01CF010895F894FFCF81
:00000001FF
