:100000000C9438000C9455000C9455000C94550039
:100010000C9455000C9455000C9455000C9455000C
:100020000C9455000C9455000C9455000C945500FC
:100030000C9455000C9455000C9455000C945500EC
:100040000C9455000C9455000C9455000C945500DC
:100050000C9455000C9455000C9455000C945500CC
:100060000C9455000C9455000C9455000C945500BC
:1000700011241FBECFEFD4E0DEBFCDBF11E0A0E062
:10008000B1E0ECE8F4E002C005900D92AE32B107A9
:10009000D9F721E0AEE2B1E001C01D92A833B2076A
:1000A000E1F70E9457000C9444020C9400008FE189
:1000B00090E00E94770062E870E08EE790E00E9496
:1000C000860086E091E00E94D1000E9482000E949A
:1000D0007E00FBCF8EB588608EBD8EB585608EBDEF
:1000E00080EC8ABD82E18BBD80E489BF089590BD1C
:1000F00089B988E18AB98EE880BD08955D9BFECFFD
:100100008CB908955F9BFECF8CB108950F931F9318
:10011000CF93DF93009759F46115710541F4F0E036
:10012000E0E0CF01DF91CF911F910F9108958B01F6
:10013000EC016EE070E081E090E00E94FC00FC01C8
:10014000892B69F380E883830115110571F013870A
:10015000028781E8838380912E0190912F01892B62
:1001600021F4F0932F01E0932E012097D1F2D18753
:10017000C0878381826083838091300190913101B7
:10018000892B79F6F0933101E093300180913201AF
:1001900090913301892B29F6F0933301E0933201DA
:1001A000C0CF0F931F93CF93DF93E0913001F09175
:1001B00031012381EC0110E000E021FD08C00FEFC8
:1001C0001FEF14C00995892B11F00FEF1FEF8991D4
:1001D0006091300170913101DB011896ED91FC9135
:1001E0008111F0CF8AE00995892B49F7C801DF9189
:1001F000CF911F910F9108950F931F93CF93DF938A
:10020000869F8001879F100D969F100D1124C801B5
:100210000E941801EC01009729F0A80170E060E04D
:100220000E943D02CE01DF91CF911F910F91089561
:100230000F931F93CF93DF938230910510F482E0E8
:1002400090E0E0913601F091370130E020E0B0E03D
:10025000A0E0309799F42115310509F44AC0281B14
:10026000390B24303105D8F58A819B8161157105E0
:1002700089F1FB0193838283FE0111C0408151818A
:100280000281138148175907E0F04817590799F47C
:10029000109761F012960C93129713961C93329656
:1002A000CF01DF91CF911F910F91089500933601F7
:1002B00010933701F4CF2115310551F04217530740
:1002C00038F0A901DB019A01BD01DF01F801C1CFBE
:1002D000EF01F9CF9093370180933601CDCFFE0126
:1002E000E20FF31F819391932250310939832883C0
:1002F000D7CF2091340130913501232B41F4209147
:100300000201309103013093350120933401209193
:100310000001309101012115310541F42DB73EB79F
:100320004091040150910501241B350BE0913401EB
:10033000F0913501E217F307A0F42E1B3F0B2817AD
:10034000390778F0AC014E5F5F4F2417350748F04E
:100350004E0F5F1F50933501409334018193919369
:100360009FCFF0E0E0E09CCFCF93DF930097E9F0E0
:10037000FC01329713821282A0913601B0913701AD
:10038000ED0130E020E01097A1F420813181820F4F
:10039000931F20913401309135012817390709F056
:1003A00061C0F0933501E0933401DF91CF9108955E
:1003B000EA01CE17DF07E8F54A815B819E0141150E
:1003C0005105B1F7E901FB83EA8349915991C40FC3
:1003D000D51FEC17FD0761F4808191810296840F8F
:1003E000951FE90199838883828193819B838A8306
:1003F000F0E0E0E012968D919C9113970097B9F58B
:100400002D913C911197CD010296820F931F20915F
:100410003401309135012817390739F6309751F5F5
:100420001092370110923601B0933501A093340138
:10043000BCCFD383C28340815181840F951FC817DD
:10044000D90761F44E5F5F4F88819981480F591F2A
:10045000518340838A819B81938382832115310557
:1004600009F0B0CFF0933701E09336019ECFFD0144
:10047000DC01C0CF13821282D7CFDC0101C06D93A3
:0C04800041505040E0F70895F894FFCF81
:10048C00000038012000486569207374756461733D
:10049C007320766920657220666572646967206DC9
:0E04AC006564206F76696E672031200D0000B8
:00000001FF
