:100000000C946C030C9489030C9489030C9489035D
:100010000C9489030C9489030C9489030C94890330
:100020000C9489030C9489030C9489030C94890320
:100030000C9489030C9489030C9489030C94890310
:100040000C9489030C9489030C9489030C94890300
:100050000C9489030C9489030C9489030C948903F0
:100060000C9489030C9489030C9489030C948903E0
:100070000060603F3F606000001818187E3C180068
:10008000000000000000000000000000005C000014
:100090000C000C007C287C2858DC680024104800E8
:1000A00028542840000C0000007884008478000068
:1000B00054385400107C10008040000010101000D4
:1000C0000040000060100C0038543800487C4000AC
:1000D0004864580044542C001C107C005C542400DC
:1000E0003854240064140C0068542C004854380020
:1000F00000480000804800001028440028282800FC
:10010000442810000454080038445C007814780037
:100110007C542800384428007C4438007C54440037
:100120007C140400384474007C107C00447C44003F
:1001300020403C007C106C007C4040007C187C001F
:1001400078103C00384438007C1408003844B8006B
:100150007C14680048542400047C04007C407C002B
:100160003C603C007C307C006C106C000C700C001F
:1001700064544C00007C44000C106000447C00007F
:1001800008040800808080000004080030487800DF
:100190007C4830003048480030487C0030685000CF
:1001A0001078140090A878007C087000507440000B
:1001B000808074007C106800447C400078107800D7
:1001C0007808700030483000F82810003048F800F7
:1001D0007810080050582800083C48003840780043
:1001E00038403800782078004830480098A07800DF
:1001F0004868580010788400007C00008478100063
:1002000008040804000000000000005F0000000770
:10021000000700147F147F14242A7F2A1223130856
:10022000646236495522500005030000001C22413B
:10023000000041221C00082A1C2A0808083E080861
:100240000050300000080808080800606000002026
:10025000100804023E5149453E00427F4000426181
:100260005149462141454B311814127F102745450D
:1002700045393C4A49493001710905033649494924
:1002800036064949291E0036360000005636000061
:1002900000081422411414141414412214080002FA
:1002A00001510906324979413E7E1111117E7F4983
:1002B0004949363E414141227F4141221C7F494903
:1002C00049417F090901013E414151327F08080837
:1002D0007F00417F41002040413F017F08142241BF
:1002E0007F404040407F0204027F7F0408107F3E31
:1002F0004141413E7F090909063E4151215E7F0986
:10030000192946464949493101017F01013F4040D1
:10031000403F1F2040201F7F2018207F63140814B7
:10032000630304780403615149454300007F414160
:10033000020408102041417F000004020102044031
:1003400040404040000102040020545454787F484B
:100350004444383844444420384444487F38545452
:100360005418087E090102081454543C7F08040400
:100370007800447D40002040443D00007F10284428
:1003800000417F40007C041804787C08040478381D
:10039000444444387C14141408081414187C7C0851
:1003A0000404084854545420043F4440203C404036
:1003B000207C1C2040201C3C4030403C442810281D
:1003C000440C5050503C4464544C440008364100A6
:1003D00000007F0000004136080002010302010016
:1003E0000000000000000000065F5F060000000043
:1003F00007070007070000147F7F147F7F14002485
:100400002E6B6B3A120000466630180C66620030A4
:100410007A4F5D377A4800040703000000000000AF
:100420001C3E63410000000041633E1C00000008C8
:100430002A3E1C1C3E2A0808083E3E080800000010
:10044000A0E060000000000808080808080000009C
:10045000006060000000006030180C060301003EE0
:100460007F594D7F3E000042427F7F404000006246
:100470007359496F660000226349497F36000018AE
:100480001C16137F7F1000276745457D3900003C0F
:100490007E4B4979300000036371190F0700003665
:1004A0007F49497F360000064F49693F1E00000022
:1004B000006C6C0000000000A0EC6C000000000864
:1004C0001C366341000000141414141414000000BE
:1004D0004163361C080000020351590F0600003E1C
:1004E0007F415D5D1F1E007C7E13137E7C000041FA
:1004F0007F7F49497F36001C3E63414163220041B2
:100500007F7F41637F1C00417F7F495D41630041E4
:100510007F7F491D0103001C3E6341517372007FC0
:100520007F08087F7F000000417F7F41000000308E
:100530007040417F3F0100417F7F081C776300418D
:100540007F7F41406070007F7F060C067F7F007FC9
:100550007F060C187F7F001C3E6341633E1C0041F8
:100560007F7F49090F06001E3F21717F5E00004119
:100570007F7F19396F460026674D597B3200000393
:10058000417F7F410300007F7F40407F7F00001F4D
:100590003F60603F1F00007F7F3018307F7F006327
:1005A000771C081C776300074F78784F07000067B7
:1005B00073594D47637100007F7F41410000000186
:1005C00003060C183060000041417F7F00000008E6
:1005D0000C0603060C0800808080808080808000EC
:1005E00000030704000000207454543C784000418C
:1005F0003F7F44447C3800387C44446C2800003001
:100600007848493F7F4000387C54545C18000048CB
:100610007E7F490302000098BCA4A4F87C0400413A
:100620007F7F08047C780000447D7D40000000400E
:10063000C484FD7D000000417F7F10386C440000C1
:10064000417F7F400000007C7C0C180C7C78007C93
:100650007C04047C780000387C44447C38000084AE
:10066000FCF8A4243C1800183C24A4F8FC840044A2
:100670007C78441C180000485C545474240000002A
:10068000043E7F442400003C7C40403C7C40001CF5
:100690003C60603C1C00003C7C6030607C3C004462
:1006A0006C3810386C44009CBCA0A0FC7C00004C52
:1006B00064745C4C64000008083E7741410000000F
:1006C000000077770000004141773E0808000002F3
:1006D000030103020301000011241FBECFEFD4E089
:1006E000DEBFCDBF12E0A0E0B1E0EEEEF1E202C06D
:1006F00005900D92A03CB107D9F723E0A0ECB2E041
:1007000001C01D92AD35B207E1F70E948B030C9436
:10071000F5100C9400008FE190E00E94BA036CEC9D
:1007200073E081EC93E00E94D90B0E94D0030E94F9
:100730006A040E9497040E9409060E945E060E94B5
:10074000DD0A2FEF8FEF9DE1215080409040E1F7CF
:1007500000C000000E940E0BF4CF8EB588608EBDE5
:100760008EB585608EBD80EC8ABD82E18BBD80E454
:1007700089BF089590BD89B988E18AB98EE880BDA6
:1007800008955D9BFECF8A3011F08CB908959DE0ED
:100790009CB95D9BFECFF9CF5F9BFECF8CB10895D6
:1007A00085B7806885BF80B7877C80BF80B780624F
:1007B00080BFE0E0F8E11192E11580E2F807D9F797
:1007C0000895CF92DF92EF92FF920F931F93CF93F2
:1007D000DF9381E191E00E943A0C0E94C90B6C0109
:1007E0000E94CE0BD0E0C0E010E000E00F2EF7E258
:1007F000EF2EF1E0FF2EF02D05C02196C11598E0F7
:10080000D907F1F00E94C90BFE01F85E80832081B8
:10081000281799F399279F938F931F922F93DF9314
:10082000CF93FF92EF920E94240C0F5F1F4F8DB762
:100830009EB708960FB6F8949EBF0FBE8DBFDDCF52
:10084000C6010E94CE0BD0E0C0E0F12CE12C0F2EAF
:10085000F0E6CF2EF1E0DF2EF02D05C02196C11578
:1008600098E0D907F1F00E94C90BFE01F85E2081E3
:100870002817A1F399279F938F931F922F93DF93AC
:10088000CF93DF92CF920E94240C8FEFE81AF80AE0
:100890008DB79EB708960FB6F8949EBF0FBE8DBF5A
:1008A000DDCFFF92EF921F930F938DE991E09F931D
:1008B0008F930E94240C0F900F900F900F900F9029
:1008C0000F90DF91CF911F910F91FF90EF90DF90EC
:1008D000CF9008958D9A8EB5887F8EBD8EB5886035
:1008E0008EBD8FB580648FBD1BBC81E08ABD8EB587
:1008F000887F8EBD8EB581608EBD32980895E0915F
:100900000001F0910101108284EA8A95F1F7849B3D
:10091000FECFA0910001B0910101E0ECF2E024ECE7
:1009200032E08D918193E217F307D9F708950E9481
:100930007F04E0ECF2E081818093D102808180939A
:10094000D20208950F931F93CF93DF930E947F04E9
:10095000E4ECF2E0C0ECD2E049818091D102481B86
:10096000550B24E6249FC001259F900D112466E5B8
:1009700070E00E94550B608348818091D202481B31
:10098000550B249FC001259F900D11246EE570E04A
:100990000E94550B61834B814F57550B249FC0011B
:1009A000259F900D11240FE710E0B8010E94550B10
:1009B00062834A814F57550B249FC001259F900D9C
:1009C0001124B8010E94550B638370E060E084E05D
:1009D0000E94100682E68A95F1F7000090E080E020
:1009E0000E942E06182F86E08A95F1F700C090E04D
:1009F00080E00E942E06D82F86E08A95F1F700C08D
:100A000090E080E00E942E06C82F86E08A95F1F7DC
:100A100000C00E943406EAECF2E0808110FB80F90D
:100A200011FB81F912FB82F913FB83F914FB84F9A2
:100A300015FB85F98083EBECF2E08081D0FB80F937
:100A4000D1FB81F9D2FB82F9D3FB83F9D4FB84F982
:100A5000D5FB85F9D6FB86F98083ECECF2E080814A
:100A6000C0FB80F9C1FB81F9C2FB82F9C3FB83F9AA
:100A7000C4FB84F98083DF91CF911F910F9108957A
:100A80000E94A204E4ECF2E08381282F082E000CDF
:100A9000330B3F938F938281282F082E000C330B4A
:100AA0003F938F938181282F082E000C330B3F93A7
:100AB0008F938081282F082E000C330B3F938F9348
:100AC00086EF91E09F938F930E94240C8DB79EB781
:100AD0000A960FB6F8949EBF0FBE8DBF0895E4EC42
:100AE000F2E050814181852F052E000C990B99234E
:100AF000F4F0803591054CF4242F042E000C330BB8
:100B00003323CCF020353105D4F0242F042E000CF3
:100B1000330B3323CCF0281739070CF55523C4F0D9
:100B200084E090E09093C9028093C8020895919563
:100B300081959109DECF319521953109E3CF10924E
:100B4000C9021092C8020895319521953109E3CF69
:100B500083E090E09093C9028093C80208954423F3
:100B60003CF081E090E09093C9028093C802089520
:100B700082E090E09093C9028093C8020895CF93D9
:100B8000DF93D82FC62F70E060E085E00E9410064A
:100B900082E68A95F1F7000070E060E08D2F0E94F8
:100BA000100682E68A95F1F7000070E060E08C2F75
:100BB0000E94100686E08A95F1F700C088B38E6027
:100BC00088BBDF91CF910895CF93DF93D82FC62FA5
:100BD00070E060E086E00E94100682E68A95F1F7F8
:100BE000000070E060E08D2F0E94100682E68A957A
:100BF000F1F7000070E060E08C2F0E94100686E0A4
:100C00008A95F1F700C088B38E6088BBDF91CF91E1
:100C1000089587B38E6B87BBBE9881E58DB9089523
:100C20006130710589F058F06230710591F08FB92B
:100C3000779BFECF80E18A95F1F700C0089598B3C5
:100C40009A6098BBC298F3CFC39898B3966098BB4C
:100C5000EECFC19898B39C6098BBE9CFBC0180E00F
:100C60000E9410068FB1089588B38E6088BB0895E6
:100C7000C49A61E070E00E9410060895C49861E093
:100C800070E00E9410060895CF93DF93D0E08D2F7F
:100C9000806B0E943E0682E00E943E068AE10E942E
:100CA0003E06C0E08CEC0E943806CF5FC038D1F71A
:100CB000DF5FD83061F7DF91CF910895CF93DF9355
:100CC0008EEA0E943E0681EA0E943E0688EC0E945F
:100CD0003E068FEA0E943E06D0E08D2F806B0E9478
:100CE0003E0680E00E943E0680E10E943E06C0E093
:100CF00080E00E943806CF5FC038D1F7DF5FD83080
:100D000061F7DF91CF910895893008F008958055FB
:100D10000E943E06FBCFCF93882354F0C82F8F70DC
:100D20000E943E068C2F82958F70805F0E943E0647
:100D3000CF910895CF93DF93D0E08D2F806B0E94E9
:100D40003E0682E00E943E068AE10E943E06C0E026
:100D500080E00E943806CF5FC038D1F7DF5FD8301F
:100D600061F7DF91CF910895CF93C62F0E9484063B
:100D70008C2F0E948B06CF910895EF92FF920F93D4
:100D80001F93CF93DF93EC01E3EDF2E083E593E073
:100D90001192E817F907E1F78881882309F496C0D2
:100DA00030E0022F10E053C0832F90E0DC01AA0F47
:100DB000BB1FAA0FBB1FA80FB91FA00FB11FAD52B9
:100DC000BD4F90E080E0E8810E2E000CFF0B7F010C
:100DD00050E2E51AF108F701EE0FFF1FEE0FFF1FBB
:100DE000EE0DFF1DE80FF91FEC5FFD4FE491ED9351
:100DF00001968530910539F725C0832F90E0880F43
:100E0000991F880F991F880F991F800F911F8D526E
:100E10009D4FB0E0A0E0E8810E2E000CFF0BB097D4
:100E2000EE0FFF1FEE0FFF1FEE0FFF1FEA0FFB1F5E
:100E3000E152FC4F5491FC015193CF011196A8301F
:100E4000B10549F73F5F21968881882339F16530E4
:100E500009F4AACF683089F26430A1F7A32FB0E07B
:100E6000AA0FBB1FAA0FBB1FA00FB11FAD52BD4FD2
:100E700090E080E0E8810E2E000CFF0BB097EE0FA3
:100E8000FF1FEE0FFF1FE80FF91FE857FF4FE49118
:100E9000ED9301968430910569F7D4CF369FB00168
:100EA00011241616170694F4F0E84F9FA0011124A0
:100EB000A22FB0E0AD52BD4F620F8D91FA01E20F4B
:100EC000F11DF85E80832F5F2613F7CFDF91CF915E
:100ED0001F910F91FF90EF900895EF92FF920F9363
:100EE0001F93CF93DF93EC01E3E5F3E0A3EDB2E0D2
:100EF0008FEF8D93AE17BF07E1F78881882309F440
:100F000089C050E0022F10E05AC0852F90E09C016C
:100F1000220F331F220F331F280F391F200F311FBD
:100F20002D523D4F90E080E0E8810E2E000CFF0B2B
:100F30007F0170E2E71AF108F701EE0FFF1FEE0FD5
:100F4000FF1FEE0DFF1DE80FF91FEC5FFD4FE49151
:100F50007E2F7095F90171939F010196853091055F
:100F600019F728C0852F90E0880F991F880F991FC7
:100F7000880F991F800F911F8D529D4F30E020E008
:100F8000E8810E2E000CFF0BB097EE0FFF1FEE0F47
:100F9000FF1FEE0FFF1FE20FF31FE152FC4FE49122
:100FA0007E2F7095FC017193CF012F5F3F4F28304A
:100FB000310531F75F5F21968881882359F16530CB
:100FC00009F4A3CF683071F26430A1F7252F30E027
:100FD000220F331F220F331F200F311F2D523D4F81
:100FE00090E080E0E8810E2E000CFF0BB097EE0F32
:100FF000FF1FEE0FFF1FE80FF91FE857FF4FE491A7
:101000007E2F7095F90171939F01019684309105AF
:1010100049F7D0CFF0E84F9F90011124E3EDF2E0C3
:10102000235D32402150384E8191E901CE0FDF1F00
:101030008883EA17FB07C1F7DF91CF911F910F91CA
:10104000FF90EF9008950F931F93CF93DF930E942B
:101050008406C3EDD2E003E513E089910E943806CF
:10106000C017D107D1F7DF91CF911F910F9108954C
:1010700090E8899FF0011124E60FF11DF85E40838E
:101080000895CF93DF9323E533E0A3EDB2E01D9203
:10109000A217B307E1F790E8899F90011124E3EDCF
:1010A000F2E0235D3240385EE901CE0FDF1F888118
:1010B0008193EA17FB07C1F7DF91CF910895CF9392
:1010C000C0E08C2F0E9441088C2F0E942308CF5F24
:1010D000C830B9F7CF910895CF93DF9323E533E07C
:1010E000E3EDF2E01192E217F307E1F783309105A7
:1010F00030F5FC01EE0FFF1FEE0FFF1FEE0FFF1F7D
:10110000E059FF4F242F30E0E901CD52DD4F255249
:101110003D4FDE0184918D933196A217B307D1F72D
:1011200080E8689FB001112498E0940F8991FB0139
:10113000E40FF11DF85E80834F5F4913F7CFDF9115
:10114000CF91089527E140E068E084E292E00E94B8
:101150006D0727E442E064E08DE292E00E94BD0664
:101160000E945F0808955F926F927F928F929F9284
:10117000AF92BF92CF92DF92EF92FF920F931F93A5
:10118000CF93DF93CDB7DEB72E970FB6F894DEBFBF
:101190000FBECDBF27E140E068E083E392E00E940C
:1011A0006D076894DD24D1F8F12CE12C0F2EFFE3BC
:1011B0006F2EF2E07F2EF02D6894CC24C2F88E01C1
:1011C000055F1F4F0F2EF2E48F2EF2E09F2EF02DC1
:1011D0000F2EFAE05F2EF02DCE0101965C01F70193
:1011E000EE5FFE4F80811F928F937F926F921F92CE
:1011F000CF921F930F930E94650C1F930F93C7010B
:10120000C1969F938F939F928F921F925F92BF92EE
:10121000AF920E94650C2FE34D2D6C2DC5010E94ED
:10122000BD069FEFE91AF90AD3940FB6F894DEBF12
:101230000FBECDBF97E0D912D2CF0E945F082E9685
:101240000FB6F894DEBF0FBECDBFDF91CF911F91D7
:101250000F91FF90EF90DF90CF90BF90AF909F9055
:101260008F907F906F905F90089527E140E068E055
:1012700089E492E00E946D0727E442E064E082E5A1
:1012800092E00E94BD0627E444E064E08EE592E02F
:101290000E94BD0627E446E064E089E692E00E94F1
:1012A000BD060E945F080895CF93DF9384E792E024
:1012B0009F938F930E94240C0F900F90D2E0CFE366
:1012C00040E06C2F8D2F0E943808CF5FC038C1F7E7
:1012D000DF5FD830A1F7DF91CF9108950E945409C4
:1012E00027E140E068E085E892E00E946D0728E091
:1012F00042E065E080E992E00E94BD0628E044E01B
:1013000065E089E992E00E94BD0628E046E065E0DC
:101310008FE992E00E94BD060E945F08089588EA66
:1013200092E09F938F930E94240C0E946E090F906D
:101330000F90CCECD2E01FC040E062E081E090E092
:101340000E946C0840E064E082E090E00E946C083B
:1013500040E066E082E090E00E946C080E945F0836
:101360000E94A204888182FF34C081E090E09093C3
:10137000CE028093CD0280E090EF0197F1F780914B
:10138000CD029091CE028130910541F1A8F20297F1
:1013900091F740E062E082E090E00E946C0840E05B
:1013A00064E082E090E00E946C0840E066E081E04A
:1013B00090E00E946C080E945F080E94A20488814D
:1013C00084FF38C081E090E09093CE028093CD02FC
:1013D000D2CF81FFD0CF0E941F0ACDCF40E062E084
:1013E00082E090E00E946C0840E064E081E090E0E0
:1013F0000E946C0840E066E082E090E00E946C0889
:101400000E945F080E94A204888184FF05C0109298
:10141000CE021092CD02AFCF82FF07C082E090E0F3
:101420009093CE028093CD02A6CF81FFA4CF0E94DD
:10143000340AA1CF81FF9FCF0E944A0A9CCF0E940D
:10144000A2084FE362E081E090E00E946C080E94F5
:101450005F08CCECD2E00E94A204888180FDFBCF23
:1014600083FFF9CF0E948F090E94B3080E94A20453
:101470008091CC0283FD0CC0CCECD2E00E94A2048F
:1014800089E999E00197F1F700C0888183FFF6CFE1
:101490000E948F090E943509CCECD2E023C04FE3B3
:1014A00062E081E090E00E946C084FE364E082E03B
:1014B00090E00E946C084FE366E082E090E00E94BA
:1014C0006C080E945F080E94A204888180FD0AC007
:1014D00083FD3AC082FF06C081E090E09093D00285
:1014E0008093CF0280E090EF0197F1F78091CF02D7
:1014F0009091D0028130910549F188F2029791F7DD
:101500004FE362E082E090E00E946C084FE364E009
:1015100082E090E00E946C084FE366E081E090E09A
:101520000E946C080E945F080E94A204888180FDCE
:10153000D9CF83FD38C084FFD5CF81E090E0909370
:10154000D0028093CF02CECF0E948F094FE362E09A
:1015500082E090E00E946C084FE364E081E090E05C
:101560000E946C084FE366E082E090E00E946C0805
:101570000E945F080E94A204888180FDB3CF83FD92
:1015800007C084FF07C01092D0021092CF02AACFEA
:101590000E948F0982FFA6CF82E090E09093D00254
:1015A0008093CF029FCF0E948F0962E070E080ECB1
:1015B0000E9410060E94340608950E94D50A0895DC
:1015C000CF93DF93D82FC62F62E070E082E00E94B5
:1015D000100662E070E08D2F0E94100662E070E05D
:1015E0008C2F0E9410060E943406DF91CF9108953F
:1015F000CF93C82F62E070E083E00E94100662E0A3
:1016000070E08C2F0E94100682E090E00E942E066F
:10161000C82F0E9434068C2FCF9108950E94D50ABE
:1016200063E080E00E94E00A80E00E94F80A1F92D6
:101630008F9384EB92E09F938F930E94240C0F90E2
:101640000F900F900F900895877062E070E08068AF
:101650000E9410060E9434060895CF9362E070E065
:1016600080EA0E94100682E090E00E942E06C82FB9
:101670000E9434068C2FCF910895CF93DF93D62FFD
:10168000C42F62E070E085E00E94100662E070E026
:101690008D2F0E94100662E070E08C2F0E941006D1
:1016A0000E943406DF91CF91089597FB072E16F420
:1016B000009407D077FD09D00E94690B07FC05D084
:1016C0003EF4909581959F4F0895709561957F4F59
:1016D0000895AA1BBB1B51E107C0AA1FBB1FA61779
:1016E000B70710F0A61BB70B881F991F5A95A9F7CB
:1016F00080959095BC01CD0108958F929F92AF92F5
:10170000BF92CF92DF92EF92FF92CF93DF93EC01E3
:10171000688179818A819B816115710581059105B7
:1017200021F464E279ED8BE597E02DE133EF41E0C0
:1017300050E00E945B1049015A019B01AC01A7EAED
:10174000B1E40E947A106B017C01ACEEB4EFA5010C
:1017500094010E948810DC01CB018C0D9D1DAE1DF3
:10176000BF1DB7FF03C00197A109B04888839983C3
:10177000AA83BB839F77DF91CF91FF90EF90DF909B
:10178000CF90BF90AF909F908F9008950E947D0B57
:10179000089587E091E00E947D0B0895B0E0A0E0FD
:1017A0008093070190930801A0930901B0930A0167
:1017B00008950F931F93CF93DF93009759F461150A
:1017C000710541F4F0E0E0E0CF01DF91CF911F918E
:1017D0000F9108958B01EC016EE070E081E090E0E4
:1017E0000E946F0EFC01892B69F380E88383011549
:1017F000110571F01387028781E883838091530379
:1018000090915403892B21F4F0935403E0935303F4
:101810002097D1F2D187C0878381826083838091B2
:10182000550390915603892B79F6F0935603E09374
:1018300055038091570390915803892B29F6F09313
:101840005803E0935703C0CFB0E0A0E0EAE2FCE029
:101850000C949D10AE014B5F5F4FFA016191719145
:10186000AF0180915503909156030E94950CE2E0E0
:101870000C94B9100F931F93CF93DF93E09155030E
:10188000F09156032381EC0110E000E021FD08C037
:101890000FEF1FEF14C00995892B11F00FEF1FEF09
:1018A00089916091550370915603DB011896ED9173
:1018B000FC918111F0CF8AE00995892B49F7C80185
:1018C000DF91CF911F910F910895AEE0B0E0EBE66C
:1018D000FCE00C949B100D891E898F89988D26E061
:1018E0002C831A83098397FF02C080E090E8019758
:1018F0009E838D83AE01455E5F4F698D7A8DCE01EB
:1019000001960E94950C4D815E8157FD0AC02F8182
:101910003885421753070CF49A01020F131FF80180
:1019200010822E96E4E00C94B710ABE0B0E0EBE947
:10193000FCE00C948D107C013B018A01FC011782B4
:101940001682838181FFC8C1CE0101965C01F70137
:101950009381F30193FD859193FF81913F0188234A
:1019600009F453C1853239F493FD859193FF819138
:101970003F01853229F4B70190E00E94CD0FE7CFF7
:10198000912C212C312CFFE1F31538F08B3211F121
:1019900090F4803209F1833229F137FC3CC020ED0C
:1019A000280F2A3050F536FE20C08AE0989E200D80
:1019B0001124922E06C08D3291F0803371F7689415
:1019C00030F8F30193FD859193FF81913F018111DF
:1019D000DACF21C0689431F8689432F8F2CF689475
:1019E00033F8EFCF689434F8ECCFEAE02E9E200D68
:1019F0001124222E689435F8E4CF8E3229F436FC77
:101A000004C1689436F8DDCF8C3619F4689437F841
:101A1000D8CF8836B1F2982F9F7D95549330E0F05F
:101A20008336A1F18337C1F1833509F063C0280102
:101A3000F2E04F0E511CF801C080D180692D70E09A
:101A400036FC02C06FEF7FEFC6010E94B00F4C0161
:101A5000689437F882010AC00C5F1F4FFFE3F983D7
:101A600088248394912C6501E89437F833FE2DC0C7
:101A7000522C8114910471F5552009F468CFB701F7
:101A800080E290E00E94CD0F5A94F6CFF801808159
:101A900089830E5F1F4FE4CF2801F2E04F0E511CE7
:101AA000F801C080D180692D70E036FC02C06FEF74
:101AB0007FEFC6010E94C20F4C018201D5CFB70152
:101AC00080E290E00E94CD0F2A942814190409F0B6
:101AD000B0F7CECFF60137FC859137FE81916F01CB
:101AE000B70190E00E94CD0F51105A94F1E08F1A87
:101AF0009108BFCF843619F0893609F077C0F80114
:101B000037FE6BC060817181828193810C5F1F4FB2
:101B1000F32DFF763F2E97FF09C090958095709525
:101B200061957F4F8F4F9F4F689437F82AE030E0E0
:101B3000A5010E94FD0FC82ECA188C2C432C36FE1E
:101B40000CC0E89440F8C91440F434FE05C032FCDF
:101B500003C0F32DFE7E4F2E892C44FE95C0FE015E
:101B6000EC0DF11D8081803309F087C0242D297E82
:101B7000422E842D8870582E43FC95C040FE8FC0A5
:101B80009C2C821418F42C0C922C981844FE91C0B2
:101B9000B70180E390E00E94CD0F42FE09C088E7C4
:101BA00090E041FE02C088E590E0B7010E94CD0FB1
:101BB000C91408F48AC0CA94D12C9FEFC91AD90A53
:101BC000CA0CDB1CF60182916F01B70190E00E9404
:101BD000CD0FAC14BD04B1F74FCF60817181072EDA
:101BE000000C880B990B0E5F1F4F92CFD32CE894FB
:101BF000D4F82AE030E0853739F1232D297FD22E21
:101C00008F3601F148F48835A9F0F7018681978174
:101C10002B96E2E10C94A910803749F08837A9F798
:101C2000D4FE02C06894D2F820E130E00DC0689480
:101C3000D4F8F6CF34FE03C0822F8660D82E20E180
:101C400032E002C028E030E0F801D7FE0FC060812A
:101C50007181828193810C5F1F4FA5010E94FD0F4E
:101C6000C82ECA183D2CE89437F867CF608171817F
:101C700090E080E00E5F1F4FF0CF42FC02C08394E3
:101C800078CF8394839475CF842D867809F471CFAF
:101C9000F6CFB70180E290E00E94CD0F83948214CA
:101CA000C0F3512C73CF522C5818821408F46ECF05
:101CB000F8CF842D867809F47BCF8BE241FE80E259
:101CC00047FC8DE2B70190E071CFB70180E390E06F
:101CD0000E94CD0F9A946CCF8FEF9FEF99CF0F9307
:101CE0001F93CF93DF93869F8001879F100D969F50
:101CF000100D1124C8010E948B0EEC01009729F0F1
:101D0000A80170E060E00E94BB0FCE01DF91CF918F
:101D10001F910F9108950F931F93CF93DF938230FC
:101D2000910510F482E090E0E0915B03F0915C0398
:101D300030E020E0B0E0A0E0309799F421153105C3
:101D400009F44AC0281B390B24303105D8F58A81A3
:101D50009B816115710589F1FB0193838283FE01EB
:101D600011C0408151810281138148175907E0F069
:101D70004817590799F4109761F012960C9312972F
:101D800013961C933296CF01DF91CF911F910F9143
:101D9000089500935B0310935C03F4CF2115310584
:101DA00051F04217530738F0A901DB019A01BD0138
:101DB000DF01F801C1CFEF01F9CF90935C0380936D
:101DC0005B03CDCFFE01E20FF31F8193919322506D
:101DD000310939832883D7CF2091590330915A0391
:101DE000232B41F420910D0130910E0130935A03C1
:101DF0002093590320910B0130910C0121153105DD
:101E000041F42DB73EB740910F0150911001241BB2
:101E1000350BE0915903F0915A03E217F307A0F450
:101E20002E1B3F0B2817390778F0AC014E5F5F4F30
:101E30002417350748F04E0F5F1F50935A03409305
:101E40005903819391939FCFF0E0E0E09CCFCF9333
:101E5000DF930097E9F0FC01329713821282A09180
:101E60005B03B0915C03ED0130E020E01097A1F43A
:101E700020813181820F931F2091590330915A03A1
:101E80002817390709F061C0F0935A03E09359030A
:101E9000DF91CF910895EA01CE17DF07E8F54A8177
:101EA0005B819E0141155105B1F7E901FB83EA838E
:101EB00049915991C40FD51FEC17FD0761F480813A
:101EC00091810296840F951FE9019983888382810D
:101ED00093819B838A83F0E0E0E012968D919C9140
:101EE00013970097B9F52D913C911197CD0102966A
:101EF000820F931F2091590330915A0328173907F5
:101F000039F6309751F510925C0310925B03B09351
:101F10005A03A0935903BCCFD383C283408151811C
:101F2000840F951FC817D90761F44E5F5F4F8881F2
:101F30009981480F591F518340838A819B819383E4
:101F400082832115310509F0B0CFF0935C03E09353
:101F50005B039ECFFD01DC01C0CF13821282D7CF7D
:101F6000FC010590615070400110D8F78095909564
:101F70008E0F9F1F0895DC0101C06D9341505040AA
:101F8000E0F70895FC016150704001900110D8F70E
:101F9000809590958E0F9F1F08950F931F93CF9359
:101FA000DF93182F092FEB018B8181FD09C01FEFF3
:101FB0000FEF812F902FDF91CF911F910F910895F7
:101FC00082FF14C02E813F818C819D8128173907A3
:101FD0003CF4E881F981CF010196998388831083CD
:101FE0008E819F8101969F838E83E3CFE885F9855B
:101FF000812F0995892BA1F3DACFFA01AA2728307E
:1020000051F1203181F1E8946F936E7F6E5F7F4FC5
:102010008F4F9F4FAF4FB1E03ED0B4E03CD0670F41
:10202000781F891F9A1FA11D680F791F8A1F911D94
:10203000A11D6A0F711D811D911DA11D20D009F4E4
:1020400068943F912AE0269F11243019305D319326
:10205000DEF6CF010895462F4770405D4193B3E00F
:102060000FD0C9F7F6CF462F4F70405D4A3318F0B6
:10207000495D31FD4052419302D0A9F7EACFB4E067
:10208000A6959795879577956795BA95C9F700971F
:102090006105710508959B01AC010A2E06945795C0
:1020A000479537952795BA95C9F7620F731F841F17
:1020B000951FA01D0895052E97FB1EF400940E9405
:1020C000721057FD07D00E94C41007FC03D04EF4D5
:1020D0000C94721050954095309521953F4F4F4F7D
:1020E0005F4F089590958095709561957F4F8F4FC4
:1020F0009F4F08950E94E610A59F900DB49F900DEC
:10210000A49F800D911D11240895B7FF0C947A109F
:102110000E947A10821B930B08952F923F924F9248
:102120005F926F927F928F929F92AF92BF92CF9267
:10213000DF92EF92FF920F931F93CF93DF93CDB770
:10214000DEB7CA1BDB0B0FB6F894DEBF0FBECDBFE8
:1021500009942A88398848885F846E847D848C84B9
:102160009B84AA84B984C884DF80EE80FD800C81C2
:102170001B81AA81B981CE0FD11D0FB6F894DEBFA5
:102180000FBECDBFED010895A1E21A2EAA1BBB1B05
:10219000FD010DC0AA1FBB1FEE1FFF1FA217B30733
:1021A000E407F50720F0A21BB30BE40BF50B661F49
:1021B000771F881F991F1A9469F76095709580950D
:1021C00090959B01AC01BD01CF010895A29FB00184
:1021D000B39FC001A39F700D811D1124911DB29F5B
:0E21E000700D811D1124911D0895F894FFCFFC
:1021EE0000104C2E1703010100000000005D0320BB
:1021FE00005374617274696E67205352414D20749E
:10220E006573742E2E2E0057726974652070686186
:10221E007365206572726F723A206578745F7261B1
:10222E006D5B2534645D203D2025303258202873A7
:10223E00686F756C642062652025303258290A005B
:10224E0052657472696576616C2070686173652081
:10225E006572726F723A206578745F72616D5B257C
:10226E0034645D203D2025303258202873686F7508
:10227E006C642062652025303258290A0053524181
:10228E004D207465737420636F6D706C6574656436
:10229E002077697468200A253464206572726F7223
:1022AE007320696E2077726974652070686173653A
:1022BE0020616E64200A253464206572726F727319
:1022CE0020696E2072657472696576616C20706823
:1022DE006173650A0A004A6F79737469636B3A20F9
:1022EE002533642C2025336420202020202020201C
:1022FE002020546F7563683A202533642C202533D3
:10230E00640D0A004E45572047414D4500537461F8
:10231E00727400484947482053434F524553002595
:10232E00640025632E2025730053455454494E47AF
:10233E00530043616C6962726174696F6E00427220
:10234E00696768746E657373004469666675637554
:10235E006C747900464A45524E4552205355424DB3
:10236E00454E5921004D41494E20204D454E5500B8
:10237E004E65772047616D650053636F726500533C
:10238E00657474696E67730049204D61696E206DC6
:10239E00656E750056616C75653A2025750D0A00DF
:00000001FF
