:100000000C9438000C9442000C9442000C94420072
:100010000C9442000C9442000C9442000C94420058
:100020000C9442000C9442000C9442000C94420048
:100030000C9442000C9442000C9442000C94420038
:100040000C9442000C9442000C9442000C94420028
:100050000C9442000C9442000C9442000C94420018
:100060000C9442000C9442000C9442000C94420008
:1000700011241FBECFEFD4E0DEBFCDBF0E944400ED
:100080000C9479000C9400008FE190E00E945C00D9
:100090000E9466008136E1F70E946200F9CF8EB5BA
:1000A00088608EBD8EB585608EBD80EC8ABD82E194
:1000B0008BBD80E489BF089589B988E18AB98EE84B
:1000C00081BD08955D9BFECF8CB908955F9BFECFE7
:1000D0008CB10895CF93DF93EC018881882331F0B0
:1000E00021960E94620089918111FBCFDF91CF910F
:0600F0000895F894FFCF13
:00000001FF
