:100000000C946C030C94CC0B0C9489030C94890312
:100010000C9489030C9489030C9489030C94890330
:100020000C9489030C9489030C9489030C94890320
:100030000C9489030C9489030C9489030C94890310
:100040000C9489030C9489030C9489030C94890300
:100050000C9489030C9489030C9489030C948903F0
:100060000C9489030C9489030C9489030C948903E0
:100070000060603F3F606000001818187E3C180068
:10008000000000000000000000000000005C000014
:100090000C000C007C287C2858DC680024104800E8
:1000A00028542840000C0000007884008478000068
:1000B00054385400107C10008040000010101000D4
:1000C0000040000060100C0038543800487C4000AC
:1000D0004864580044542C001C107C005C542400DC
:1000E0003854240064140C0068542C004854380020
:1000F00000480000804800001028440028282800FC
:10010000442810000454080038445C007814780037
:100110007C542800384428007C4438007C54440037
:100120007C140400384474007C107C00447C44003F
:1001300020403C007C106C007C4040007C187C001F
:1001400078103C00384438007C1408003844B8006B
:100150007C14680048542400047C04007C407C002B
:100160003C603C007C307C006C106C000C700C001F
:1001700064544C00007C44000C106000447C00007F
:1001800008040800808080000004080030487800DF
:100190007C4830003048480030487C0030685000CF
:1001A0001078140090A878007C087000507440000B
:1001B000808074007C106800447C400078107800D7
:1001C0007808700030483000F82810003048F800F7
:1001D0007810080050582800083C48003840780043
:1001E00038403800782078004830480098A07800DF
:1001F0004868580010788400007C00008478100063
:1002000008040804000000000000005F0000000770
:10021000000700147F147F14242A7F2A1223130856
:10022000646236495522500005030000001C22413B
:10023000000041221C00082A1C2A0808083E080861
:100240000050300000080808080800606000002026
:10025000100804023E5149453E00427F4000426181
:100260005149462141454B311814127F102745450D
:1002700045393C4A49493001710905033649494924
:1002800036064949291E0036360000005636000061
:1002900000081422411414141414412214080002FA
:1002A00001510906324979413E7E1111117E7F4983
:1002B0004949363E414141227F4141221C7F494903
:1002C00049417F090901013E414151327F08080837
:1002D0007F00417F41002040413F017F08142241BF
:1002E0007F404040407F0204027F7F0408107F3E31
:1002F0004141413E7F090909063E4151215E7F0986
:10030000192946464949493101017F01013F4040D1
:10031000403F1F2040201F7F2018207F63140814B7
:10032000630304780403615149454300007F414160
:10033000020408102041417F000004020102044031
:1003400040404040000102040020545454787F484B
:100350004444383844444420384444487F38545452
:100360005418087E090102081454543C7F08040400
:100370007800447D40002040443D00007F10284428
:1003800000417F40007C041804787C08040478381D
:10039000444444387C14141408081414187C7C0851
:1003A0000404084854545420043F4440203C404036
:1003B000207C1C2040201C3C4030403C442810281D
:1003C000440C5050503C4464544C440008364100A6
:1003D00000007F0000004136080002010302010016
:1003E0000000000000000000065F5F060000000043
:1003F00007070007070000147F7F147F7F14002485
:100400002E6B6B3A120000466630180C66620030A4
:100410007A4F5D377A4800040703000000000000AF
:100420001C3E63410000000041633E1C00000008C8
:100430002A3E1C1C3E2A0808083E3E080800000010
:10044000A0E060000000000808080808080000009C
:10045000006060000000006030180C060301003EE0
:100460007F594D7F3E000042427F7F404000006246
:100470007359496F660000226349497F36000018AE
:100480001C16137F7F1000276745457D3900003C0F
:100490007E4B4979300000036371190F0700003665
:1004A0007F49497F360000064F49693F1E00000022
:1004B000006C6C0000000000A0EC6C000000000864
:1004C0001C366341000000141414141414000000BE
:1004D0004163361C080000020351590F0600003E1C
:1004E0007F415D5D1F1E007C7E13137E7C000041FA
:1004F0007F7F49497F36001C3E63414163220041B2
:100500007F7F41637F1C00417F7F495D41630041E4
:100510007F7F491D0103001C3E6341517372007FC0
:100520007F08087F7F000000417F7F41000000308E
:100530007040417F3F0100417F7F081C776300418D
:100540007F7F41406070007F7F060C067F7F007FC9
:100550007F060C187F7F001C3E6341633E1C0041F8
:100560007F7F49090F06001E3F21717F5E00004119
:100570007F7F19396F460026674D597B3200000393
:10058000417F7F410300007F7F40407F7F00001F4D
:100590003F60603F1F00007F7F3018307F7F006327
:1005A000771C081C776300074F78784F07000067B7
:1005B00073594D47637100007F7F41410000000186
:1005C00003060C183060000041417F7F00000008E6
:1005D0000C0603060C0800808080808080808000EC
:1005E00000030704000000207454543C784000418C
:1005F0003F7F44447C3800387C44446C2800003001
:100600007848493F7F4000387C54545C18000048CB
:100610007E7F490302000098BCA4A4F87C0400413A
:100620007F7F08047C780000447D7D40000000400E
:10063000C484FD7D000000417F7F10386C440000C1
:10064000417F7F400000007C7C0C180C7C78007C93
:100650007C04047C780000387C44447C38000084AE
:10066000FCF8A4243C1800183C24A4F8FC840044A2
:100670007C78441C180000485C545474240000002A
:10068000043E7F442400003C7C40403C7C40001CF5
:100690003C60603C1C00003C7C6030607C3C004462
:1006A0006C3810386C44009CBCA0A0FC7C00004C52
:1006B00064745C4C64000008083E7741410000000F
:1006C000000077770000004141773E0808000002F3
:1006D000030103020301000011241FBECFEFD4E089
:1006E000DEBFCDBF13E0A0E0B1E0E4EAF5E202C076
:1006F00005900D92A036B107D9F723E0A0E6B3E04C
:1007000001C01D92AF3FB207E1F70E948B030C942A
:10071000D0120C9400008FE190E00E94200462E36C
:1007200074E087E294E00E94B40D0E9436040E94B7
:10073000D0040E94FD040E946F060E94C4060E941D
:10074000A20BB12CC0E00F2EF4E1CF2EF1E0DF2E92
:10075000F02D0F2EFBE3EF2EF1E0FF2EF02D6C2F8E
:1007600070E076956795769567957695679581E3C0
:100770000E94430B6B2D82E30E94430B61E085E3F3
:100780000E94430B6C2F86E30E94430B2FEF8FE7F1
:1007900091E0215080409040E1F700C000C081E32B
:1007A0000E945B0BA82E82E30E945B0B0A2D10E0D7
:1007B000D82FD295D695D77085E30E945B0B982EE3
:1007C00086E30E945B0B882E1F92CF931F92CF93DC
:1007D000DF92CF920E94FF0D1F928F921F929F92E5
:1007E0001F92DF931F92AF92000F111F000F111F76
:1007F000000F111FD02B1F92DF93FF92EF920E94E8
:10080000FF0D8CEC94E00197F1F700C00000CF5F82
:1008100090E2B90E8DB79EB742960FB6F8949EBF80
:100820000FBE8DBF9CCF8EB588608EBD8EB58560A6
:100830008EBD80EC8ABD82E18BBD80E489BF0895C6
:1008400090BD89B988E18AB98EE880BD08955D9B25
:10085000FECF8A3011F08CB908959DE09CB95D9B64
:10086000FECFF9CF5F9BFECF8CB1089585B780682E
:1008700085BF80B7877C80BF80B7806280BFE0E0A3
:10088000F8E11192E11580E2F807D9F70895CF92C7
:10089000DF92EF92FF920F931F93CF93DF9388E73E
:1008A00091E00E94150E0E94A40D6C010E94A90DFA
:1008B000D0E0C0E010E000E00F2EFEE8EF2EF1E007
:1008C000FF2EF02D05C02196C11598E0D907F1F053
:1008D0000E94A40DFE01F85E80832081281799F301
:1008E00099279F938F931F922F93DF93CF93FF921C
:1008F000EF920E94FF0D0F5F1F4F8DB79EB70896B6
:100900000FB6F8949EBF0FBE8DBFDDCFC6010E940B
:10091000A90DD0E0C0E0F12CE12C0F2EF7ECCF2E8A
:10092000F1E0DF2EF02D05C02196C11598E0D90722
:10093000F1F00E94A40DFE01F85E20812817A1F3BA
:1009400099279F938F931F922F93DF93CF93DF92DB
:10095000CF920E94FF0D8FEFE81AF80A8DB79EB76D
:1009600008960FB6F8949EBF0FBE8DBFDDCFFF92E5
:10097000EF921F930F9384E092E09F938F930E94D6
:10098000FF0D0F900F900F900F900F900F90DF9131
:10099000CF911F910F91FF90EF90DF90CF9008952E
:1009A0008D9A8EB5887F8EBD8EB588608EBD8FB5D1
:1009B00080648FBD1BBC81E08ABD8EB5887F8EBDF3
:1009C0008EB581608EBD32980895E0910001F0915E
:1009D0000101108284EA8A95F1F7849BFECFA091F1
:1009E0000001B0910101E0E6F3E024E633E08D91EF
:1009F0008193E217F307D9F708950E94E504E0E632
:100A0000F3E0818180937303808180937403089560
:100A10000F931F93CF93DF930E94E504E4E6F3E086
:100A2000C0E6D3E0498180917303481B550B24E64F
:100A3000249FC001259F900D112466E570E00E945F
:100A4000300D6083488180917403481B550B249FAF
:100A5000C001259F900D11246EE570E00E94300DBD
:100A600061834B814F57550B249FC001259F900DEB
:100A700011240FE710E0B8010E94300D62834A8113
:100A80004F57550B249FC001259F900D1124B8018D
:100A90000E94300D638370E060E084E00E9476067F
:100AA00082E68A95F1F7000090E080E00E949406CB
:100AB000182F86E08A95F1F700C090E080E00E9450
:100AC0009406D82F86E08A95F1F700C090E080E088
:100AD0000E949406C82F86E08A95F1F700C00E9414
:100AE0009A06ECE6F3E0808110FB80F911FB81F9B6
:100AF00012FB82F913FB83F914FB84F915FB85F9CA
:100B00008083EDE6F3E08081D0FB80F9D1FB81F9B1
:100B1000D2FB82F9D3FB83F9D4FB84F9D5FB85F9A9
:100B2000D6FB86F98083EEE6F3E08081C0FB80F996
:100B3000C1FB81F9C2FB82F9C3FB83F9C4FB84F9D1
:100B40008083DF91CF911F910F9108950E94080536
:100B5000E4E6F3E08381282F082E000C330B3F934B
:100B60008F938281282F082E000C330B3F938F9395
:100B70008181282F082E000C330B3F938F938081A7
:100B8000282F082E000C330B3F938F938DE592E0B6
:100B90009F938F930E94FF0D8DB79EB70A960FB655
:100BA000F8949EBF0FBE8DBF0895E4E6F3E0508138
:100BB0004181852F052E000C990B9923F4F0803587
:100BC00091054CF4242F042E000C330B3323CCF06E
:100BD00020353105D4F0242F042E000C330B3323A1
:100BE000CCF0281739070CF55523C4F084E090E0C9
:100BF00090936B0380936A03089591958195910971
:100C0000DECF319521953109E3CF10926B0310921D
:100C10006A030895319521953109E3CF83E090E08F
:100C200090936B0380936A03089544233CF081E022
:100C300090E090936B0380936A03089582E090E0C4
:100C400090936B0380936A030895CF93DF93D82F1B
:100C5000C62F70E060E085E00E94760682E68A9505
:100C6000F1F7000070E060E08D2F0E94760682E6CA
:100C70008A95F1F7000070E060E08C2F0E94760604
:100C800086E08A95F1F700C088B38E6088BBDF915B
:100C9000CF910895CF93DF93D82FC62F70E060E0F7
:100CA00086E00E94760682E68A95F1F7000070E001
:100CB00060E08D2F0E94760682E68A95F1F70000AB
:100CC00070E060E08C2F0E94760686E08A95F1F74E
:100CD00000C088B38E6088BBDF91CF91089587B341
:100CE0008E6B87BBBE9881E58DB908956130710523
:100CF00089F058F06230710591F08FB9779BFECF83
:100D000080E18A95F1F700C0089598B39A6098BB86
:100D1000C298F3CFC39898B3966098BBEECFC198B2
:100D200098B39C6098BBE9CFBC0180E00E94760636
:100D30008FB1089588B38E6088BB0895C49A61E02E
:100D400070E00E9476060895C49861E070E00E9409
:100D500076060895CF93DF93D0E08D2F806B0E94AD
:100D6000A40682E00E94A4068AE10E94A406C0E0D4
:100D70008CEC0E949E06CF5FC038D1F7DF5FD83081
:100D800061F7DF91CF910895CF93DF938EEA0E94B0
:100D9000A40681EA0E94A40688EC0E94A4068FEAB9
:100DA0000E94A406D0E08D2F806B0E94A40680E0F4
:100DB0000E94A40680E10E94A406C0E080E00E9498
:100DC0009E06CF5FC038D1F7DF5FD83061F7DF9183
:100DD000CF910895893008F0089580550E94A406A7
:100DE000FBCFCF93882354F0C82F8F700E94A406A6
:100DF0008C2F82958F70805F0E94A406CF910895FA
:100E0000CF93DF93D0E08D2F806B0E94A40682E009
:100E10000E94A4068AE10E94A406C0E080E00E942D
:100E20009E06CF5FC038D1F7DF5FD83061F7DF9122
:100E3000CF910895CF93C62F0E94EA068C2F0E946F
:100E4000F106CF910895EF92FF920F931F93CF93E6
:100E5000DF93EC01E5E7F3E085EF93E01192E8170B
:100E6000F907E1F78881882309F496C030E0022F62
:100E700010E053C0832F90E0DC01AA0FBB1FAA0F24
:100E8000BB1FA80FB91FA00FB11FAB58BC4F90E0FC
:100E900080E0E8810E2E000CFF0B7F0150E2E51A86
:100EA000F108F701EE0FFF1FEE0FFF1FEE0DFF1D04
:100EB000E80FF91FEC5FFD4FE491ED93019685304B
:100EC000910539F725C0832F90E0880F991F880F6F
:100ED000991F880F991F800F911F8B589C4FB0E06E
:100EE000A0E0E8810E2E000CFF0BB097EE0FFF1F65
:100EF000EE0FFF1FEE0FFF1FEA0FFB1FE152FC4F2B
:100F00005491FC015193CF011196A830B10549F7D6
:100F10003F5F21968881882339F1653009F4AACF93
:100F2000683089F26430A1F7A32FB0E0AA0FBB1F8D
:100F3000AA0FBB1FA00FB11FAB58BC4F90E080E0C1
:100F4000E8810E2E000CFF0BB097EE0FFF1FEE0F87
:100F5000FF1FE80FF91FE857FF4FE491ED9301964B
:100F60008430910569F7D4CF369FB001112416164D
:100F7000170694F4F0E84F9FA0011124A22FB0E0CF
:100F8000AB58BC4F620F8D91FA01E20FF11DF85E74
:100F900080832F5F2613F7CFDF91CF911F910F91A1
:100FA000FF90EF900895EF92FF920F931F93CF93CE
:100FB000DF93EC01E5EFF3E0A5E7B3E08FEF8D936E
:100FC000AE17BF07E1F78881882309F489C050E094
:100FD000022F10E05AC0852F90E09C01220F331F92
:100FE000220F331F280F391F200F311F2B583C4F62
:100FF00090E080E0E8810E2E000CFF0B7F0170E294
:10100000E71AF108F701EE0FFF1FEE0FFF1FEE0DBD
:10101000FF1DE80FF91FEC5FFD4FE4917E2F7095E7
:10102000F90171939F0101968530910519F728C048
:10103000852F90E0880F991F880F991F880F991F9F
:10104000800F911F8B589C4F30E020E0E8810E2EDE
:10105000000CFF0BB097EE0FFF1FEE0FFF1FEE0F00
:10106000FF1FE20FF31FE152FC4FE4917E2F7095BA
:10107000FC017193CF012F5F3F4F2830310531F7CD
:101080005F5F21968881882359F1653009F4A3CFE9
:10109000683071F26430A1F7252F30E0220F331F42
:1010A000220F331F200F311F2B583C4F90E080E060
:1010B000E8810E2E000CFF0BB097EE0FFF1FEE0F16
:1010C000FF1FE80FF91FE857FF4FE4917E2F70953F
:1010D000F90171939F0101968430910549F7D0CFB2
:1010E000F0E84F9F90011124E5E7F3E025573340E6
:1010F0002150384E8191E901CE0FDF1F8883EA1716
:10110000FB07C1F7DF91CF911F910F91FF90EF90F7
:1011100008950F931F93CF93DF930E94EA06C5E7CC
:10112000D3E005EF13E089910E949E06C017D10716
:10113000D1F7DF91CF911F910F91089590E8899F8A
:10114000F0011124E60FF11DF85E40830895CF935E
:10115000DF9325EF33E0A5E7B3E01D92A217B307B5
:10116000E1F790E8899F90011124E5E7F3E0255726
:101170003340385EE901CE0FDF1F88818193EA1783
:10118000FB07C1F7DF91CF910895CF93C0E08C2F7B
:101190000E94A7088C2F0E948908CF5FC830B9F73A
:1011A000CF910895CF93DF9325EF33E0E5E7F3E0A8
:1011B0001192E217F307E1F78330910530F5FC0156
:1011C000EE0FFF1FEE0FFF1FEE0FFF1FE059FF4F47
:1011D000242F30E0E901CB58DC4F23583C4FDE018F
:1011E00084918D933196A217B307D1F780E8689F59
:1011F000B001112498E0940F8991FB01E40FF11DD7
:10120000F85E80834F5F4913F7CFDF91CF91089548
:1012100027E140E068E08BE892E00E94D30727E4F2
:1012200042E064E084E992E00E9423070E94C5083E
:1012300008955F926F927F928F929F92AF92BF922A
:10124000CF92DF92EF92FF920F931F93CF93DF9392
:10125000CDB7DEB72E970FB6F894DEBF0FBECDBF69
:1012600027E140E068E08AE992E00E94D3076894B1
:10127000DD24D1F8F12CE12C0F2EF6EA6F2EF2E0EE
:101280007F2EF02D6894CC24C2F88E01055F1F4F8D
:101290000F2EF9EA8F2EF2E09F2EF02D0F2EFAE09E
:1012A0005F2EF02DCE0101965C01F701EE5FFE4F3F
:1012B00080811F928F937F926F921F92CF921F9384
:1012C0000F930E94400E1F930F93C701C1969F93E7
:1012D0008F939F928F921F925F92BF92AF920E94C4
:1012E000400E2FE34D2D6C2DC5010E9423079FEF6B
:1012F000E91AF90AD3940FB6F894DEBF0FBECDBF3A
:1013000097E0D912D2CF0E94C5082E960FB6F89456
:10131000DEBF0FBECDBFDF91CF911F910F91FF9028
:10132000EF90DF90CF90BF90AF909F908F907F9085
:101330006F905F90089527E140E068E080EB92E0D5
:101340000E94D30727E442E064E089EB92E00E9428
:10135000230727E444E064E085EC92E00E94230741
:1013600027E446E064E080ED92E00E9423070E94BB
:10137000C5080895CF93DF938BED92E09F938F93F1
:101380000E94FF0D0F900F90D2E0CFE340E06C2F52
:101390008D2F0E949E08CF5FC038C1F7DF5FD83025
:1013A000A1F7DF91CF9108950E94BA0927E140E0AB
:1013B00068E08CEE92E00E94D30728E042E065E00E
:1013C00087EF92E00E94230728E044E065E080E098
:1013D00093E00E94230728E046E065E086E093E082
:1013E0000E9423070E94C50808958FE093E09F9311
:1013F0008F930E94FF0D0E94D4090F900F90CEE6AC
:10140000D3E01FC040E062E081E090E00E94D2089B
:1014100040E064E082E090E00E94D20840E066E0B4
:1014200082E090E00E94D2080E94C5080E94080550
:10143000888182FF34C081E090E0909370038093B4
:101440006F0380E090EF0197F1F780916F03909127
:1014500070038130910541F1A8F2029791F740E0C5
:1014600062E082E090E00E94D20840E064E082E026
:1014700090E00E94D20840E066E081E090E00E94A7
:10148000D2080E94C5080E940805888184FF38C0E0
:1014900081E090E09093700380936F03D2CF81FF3F
:1014A000D0CF0E94850ACDCF40E062E082E090E09C
:1014B0000E94D20840E064E081E090E00E94D208FF
:1014C00040E066E082E090E00E94D2080E94C508F9
:1014D0000E940805888184FF05C010927003109255
:1014E0006F03AFCF82FF07C082E090E0909370035C
:1014F00080936F03A6CF81FFA4CF0E949A0AA1CF49
:1015000081FF9FCF0E94B00A9CCF0E9408094FE341
:1015100062E081E090E00E94D2080E94C508CEE619
:10152000D3E00E940805888180FDFBCF83FFF9CFBF
:101530000E94F5090E9419090E94080580916E0316
:1015400083FD0CC0CEE6D3E00E94080589E999E04E
:101550000197F1F700C0888183FFF6CF0E94F5095B
:101560000E949B09CEE6D3E023C04FE362E081E016
:1015700090E00E94D2084FE364E082E090E00E9495
:10158000D2084FE366E082E090E00E94D2080E9419
:10159000C5080E940805888180FD0AC083FD3AC005
:1015A00082FF06C081E090E0909372038093710304
:1015B00080E090EF0197F1F78091710390917203B1
:1015C0008130910549F188F2029791F74FE362E08B
:1015D00082E090E00E94D2084FE364E082E090E075
:1015E0000E94D2084FE366E081E090E00E94D208BA
:1015F0000E94C5080E940805888180FDD9CF83FD1F
:1016000038C084FFD5CF81E090E09093720380933F
:101610007103CECF0E94F5094FE362E082E090E0D3
:101620000E94D2084FE364E081E090E00E94D2087B
:101630004FE366E082E090E00E94D2080E94C50875
:101640000E940805888180FDB3CF83FD07C084FF19
:1016500007C01092720310927103AACF0E94F5097D
:1016600082FFA6CF82E090E0909372038093710393
:101670009FCF0E94F50962E070E080EC0E94760640
:101680000E949A060895CF93DF93D82FC62F62E069
:1016900070E082E00E94760662E070E08D2F0E948A
:1016A000760662E070E08C2F0E9476060E949A0611
:1016B000DF91CF910895CF93C82F62E070E083E06F
:1016C0000E94760662E070E08C2F0E94760682E02F
:1016D00090E00E949406C82F0E949A068C2FCF910A
:1016E0000895877062E070E080680E9476060E942C
:1016F0009A060895CF9362E070E080EA0E94760631
:1017000082E090E00E949406C82F0E949A068C2FD7
:10171000CF910895CF93DF93D62FC42F62E070E06E
:1017200085E00E94760662E070E08D2F0E947606CA
:1017300062E070E08C2F0E9476060E949A06DF918C
:10174000CF9108950E943B0B60E680E60E94430B18
:1017500040E460EE8FE00E948A0B8A9885B78C7F08
:1017600085BF8BB780648BBF789408950E94A20BCD
:1017700063E080E00E94430B80E00E945B0B1F92BD
:101780008F938BE193E09F938F930E94FF0D0F90B7
:101790000F900F900F9008951F920F920FB60F9217
:1017A00011242F933F934F935F936F937F938F9366
:1017B0009F93AF93BF93EF93FF938CE20E945B0BD9
:1017C00080FD11C0FF91EF91BF91AF919F918F91DB
:1017D0007F916F915F914F913F912F910F900FBE2D
:1017E0000F901F90189540E061E08CE20E948A0BF8
:1017F00086E60E945B0BE6CFEF92FF920F931F935A
:10180000CF93DF93CDB7DEB72B970FB6F894DEBF3B
:101810000FBECDBFE982FA820B831C832D833E83EA
:101820004F83588769877A878B87E980FA8062E0DF
:1018300070E080E40E947606C7019695879596959C
:1018400087959695879562E070E00E94760662E043
:1018500070E08E2D8295880F807E0E94760662E071
:1018600070E0802F8F700E9476060023B1F07E0119
:1018700084E0E80EF11C0150E5E0F0E0EC0FFD1F04
:10188000E00FF11D8F0162E070E0F70181917F01AF
:101890000E947606E016F106B1F70E949A0662E011
:1018A00070E081E80E9476060E949A062B960FB699
:1018B000F894DEBF0FBECDBFDF91CF911F910F9186
:1018C000FF90EF9008959F92AF92BF92CF92DF92D8
:1018D000EF92FF920F931F93CF93DF93CDB7DEB7B5
:1018E0002B970FB6F894DEBF0FBECDBF7C018BE007
:1018F000FE013196DF011D928A95E9F78091680318
:10190000813001F180916903813009F462C087E27E
:1019100093E09F938F930E94FF0D0F900F90C7014C
:101920002B960FB6F894DEBF0FBECDBFDF91CF91DF
:101930001F910F91FF90EF90DF90CF90BF90AF90ED
:101940009F90089562E070E080E90E94760682E050
:1019500090E00E949406A82E82E090E00E949406F7
:10196000182F82E090E00E9494068F70982EB12C80
:10197000AA0CBB1CAA0CBB1CAA0CBB1C129516956E
:101980001770A12A8823B9F08E010C5F1F4FCC2459
:10199000CA94C80EE5E0F0E0EC0FFD1FEC0DF11D60
:1019A0006F0182E090E00E949406D8018D938D0132
:1019B000AC15BD05B1F70E949A06BA82A9829B8236
:1019C0008BE0FE013196D70101900D928A95E1F7E7
:1019D000A6CF62E070E084E90E94760682E090E0A3
:1019E0000E949406A82E82E090E00E949406182F90
:1019F00082E090E00E9494068F70982EB12CAA0C81
:101A0000BB1CAA0CBB1CAA0CBB1C1295169517700C
:101A1000A12A8823B9F08E010C5F1F4FCC24CA94F1
:101A2000C80EE5E0F0E0EC0FFD1FEC0DF11D6F01BD
:101A300082E090E00E949406D8018D938D01AC1550
:101A4000BD05B1F70E949A06BA82A9829B828BE0FB
:101A5000FE013196D70101900D928A95E1F75FCF93
:101A600097FB072E16F4009407D077FD09D00E944B
:101A7000440D07FC05D03EF4909581959F4F089545
:101A8000709561957F4F0895AA1BBB1B51E107C05C
:101A9000AA1FBB1FA617B70710F0A61BB70B881FFE
:101AA000991F5A95A9F780959095BC01CD0108958D
:101AB0008F929F92AF92BF92CF92DF92EF92FF925E
:101AC000CF93DF93EC01688179818A819B816115D5
:101AD00071058105910521F464E279ED8BE597E0CC
:101AE0002DE133EF41E050E00E94361249015A01E6
:101AF0009B01AC01A7EAB1E40E9455126B017C0185
:101B0000ACEEB4EFA50194010E946312DC01CB019D
:101B10008C0D9D1DAE1DBF1DB7FF03C00197A10910
:101B2000B04888839983AA83BB839F77DF91CF9145
:101B3000FF90EF90DF90CF90BF90AF909F908F90ED
:101B400008950E94580D08958AE091E00E94580D72
:101B50000895B0E0A0E080930A0190930B01A09358
:101B60000C01B0930D0108950F931F93CF93DF9352
:101B7000009759F46115710541F4F0E0E0E0CF0100
:101B8000DF91CF911F910F9108958B01EC016EE0D1
:101B900070E081E090E00E944A10FC01892B69F31B
:101BA00080E883830115110571F01387028781E8AE
:101BB00083838091F5039091F603892B21F4F093B0
:101BC000F603E093F5032097D1F2D187C087838194
:101BD000826083838091F7039091F803892B79F6D3
:101BE000F093F803E093F7038091F9039091FA03DF
:101BF000892B29F6F093FA03E093F903C0CFB0E004
:101C0000A0E0E5E0FEE00C947812AE014B5F5F4F80
:101C1000FA0161917191AF018091F7039091F803FE
:101C20000E94700EE2E00C9494120F931F93CF93D6
:101C3000DF93E091F703F091F8032381EC0110E0CA
:101C400000E021FD08C00FEF1FEF14C00995892B9C
:101C500011F00FEF1FEF89916091F7037091F80376
:101C6000DB011896ED91FC918111F0CF8AE0099586
:101C7000892B49F7C801DF91CF911F910F910895EA
:101C8000AEE0B0E0E6E4FEE00C9476120D891E8929
:101C90008F89988D26E02C831A83098397FF02C0D1
:101CA00080E090E801979E838D83AE01455E5F4F93
:101CB000698D7A8DCE0101960E94700E4D815E81F4
:101CC00057FD0AC02F813885421753070CF49A013B
:101CD000020F131FF80110822E96E4E00C9492126A
:101CE000ABE0B0E0E6E7FEE00C9468127C013B015B
:101CF0008A01FC0117821682838181FFC8C1CE014F
:101D000001965C01F7019381F30193FD859193FFA7
:101D100081913F01882309F453C1853239F493FD41
:101D2000859193FF81913F01853229F4B70190E0BD
:101D30000E94A811E7CF912C212C312CFFE1F31543
:101D400038F08B3211F190F4803209F1833229F1AD
:101D500037FC3CC020ED280F2A3050F536FE20C05D
:101D60008AE0989E200D1124922E06C08D3291F0AB
:101D7000803371F7689430F8F30193FD859193FFF8
:101D800081913F018111DACF21C0689431F86894C4
:101D900032F8F2CF689433F8EFCF689434F8ECCF90
:101DA000EAE02E9E200D1124222E689435F8E4CF0F
:101DB0008E3229F436FC04C1689436F8DDCF8C36B7
:101DC00019F4689437F8D8CF8836B1F2982F9F7DF0
:101DD00095549330E0F08336A1F18337C1F1833518
:101DE00009F063C02801F2E04F0E511CF801C080D9
:101DF000D180692D70E036FC02C06FEF7FEFC60125
:101E00000E948B114C01689437F882010AC00C5F64
:101E10001F4FFFE3F98388248394912C6501E89494
:101E200037F833FE2DC0522C8114910471F55520E2
:101E300009F468CFB70180E290E00E94A8115A949B
:101E4000F6CFF801808189830E5F1F4FE4CF280110
:101E5000F2E04F0E511CF801C080D180692D70E076
:101E600036FC02C06FEF7FEFC6010E949D114C014E
:101E70008201D5CFB70180E290E00E94A8112A9498
:101E80002814190409F0B0F7CECFF60137FC85917C
:101E900037FE81916F01B70190E00E94A8115110A7
:101EA0005A94F1E08F1A9108BFCF843619F0893621
:101EB00009F077C0F80137FE6BC0608171818281C3
:101EC00093810C5F1F4FF32DFF763F2E97FF09C0C4
:101ED00090958095709561957F4F8F4F9F4F689437
:101EE00037F82AE030E0A5010E94D811C82ECA18A0
:101EF0008C2C432C36FE0CC0E89440F8C91440F4F6
:101F000034FE05C032FC03C0F32DFE7E4F2E892C1B
:101F100044FE95C0FE01EC0DF11D8081803309F077
:101F200087C0242D297E422E842D8870582E43FC94
:101F300095C040FE8FC09C2C821418F42C0C922C5F
:101F4000981844FE91C0B70180E390E00E94A81168
:101F500042FE09C088E790E041FE02C088E590E0BB
:101F6000B7010E94A811C91408F48AC0CA94D12CE0
:101F70009FEFC91AD90ACA0CDB1CF60182916F01C6
:101F8000B70190E00E94A811AC14BD04B1F74FCF87
:101F900060817181072E000C880B990B0E5F1F4F1B
:101FA00092CFD32CE894D4F82AE030E0853739F189
:101FB000232D297FD22E8F3601F148F48835A9F0E0
:101FC000F701868197812B96E2E10C948412803789
:101FD00049F08837A9F7D4FE02C06894D2F820E10E
:101FE00030E00DC06894D4F8F6CF34FE03C0822FE1
:101FF0008660D82E20E132E002C028E030E0F8010F
:10200000D7FE0FC060817181828193810C5F1F4F69
:10201000A5010E94D811C82ECA183D2CE89437F8A3
:1020200067CF6081718190E080E00E5F1F4FF0CF3D
:1020300042FC02C0839478CF8394839475CF842D1F
:10204000867809F471CFF6CFB70180E290E00E9464
:10205000A81183948214C0F3512C73CF522C5818BA
:10206000821408F46ECFF8CF842D867809F47BCFE4
:102070008BE241FE80E247FC8DE2B70190E071CF38
:10208000B70180E390E00E94A8119A946CCF8FEF83
:102090009FEF99CF0F931F93CF93DF93869F80017C
:1020A000879F100D969F100D1124C8010E94661085
:1020B000EC01009729F0A80170E060E00E94961101
:1020C000CE01DF91CF911F910F9108950F931F9330
:1020D000CF93DF938230910510F482E090E0E0919D
:1020E000FD03F091FE0330E020E0B0E0A0E0309787
:1020F00099F42115310509F44AC0281B390B243005
:102100003105D8F58A819B816115710589F1FB0143
:1021100093838283FE0111C040815181028113812A
:1021200048175907E0F04817590799F4109761F0DC
:1021300012960C93129713961C933296CF01DF914F
:10214000CF911F910F9108950093FD031093FE030B
:10215000F4CF2115310551F04217530738F0A9018A
:10216000DB019A01BD01DF01F801C1CFEF01F9CF19
:102170009093FE038093FD03CDCFFE01E20FF31F8A
:10218000819391932250310939832883D7CF2091AD
:10219000FB033091FC03232B41F42091100130917B
:1021A00011013093FC032093FB0320910E01309129
:1021B0000F012115310541F42DB73EB740911201B1
:1021C00050911301241B350BE091FB03F091FC03AC
:1021D000E217F307A0F42E1B3F0B2817390778F0FE
:1021E000AC014E5F5F4F2417350748F04E0F5F1F5D
:1021F0005093FC034093FB03819391939FCFF0E0B6
:10220000E0E09CCFCF93DF930097E9F0FC01329799
:1022100013821282A091FD03B091FE03ED0130E024
:1022200020E01097A1F420813181820F931F20912B
:10223000FB033091FC032817390709F061C0F093C4
:10224000FC03E093FB03DF91CF910895EA01CE17E1
:10225000DF07E8F54A815B819E0141155105B1F721
:10226000E901FB83EA8349915991C40FD51FEC170B
:10227000FD0761F4808191810296840F951FE90129
:1022800099838883828193819B838A83F0E0E0E055
:1022900012968D919C9113970097B9F52D913C91D1
:1022A0001197CD010296820F931F2091FB0330916D
:1022B000FC032817390739F6309751F51092FE03C1
:1022C0001092FD03B093FC03A093FB03BCCFD38318
:1022D000C28340815181840F951FC817D90761F4CB
:1022E0004E5F5F4F88819981480F591F518340830A
:1022F0008A819B81938382832115310509F0B0CFB8
:10230000F093FE03E093FD039ECFFD01DC01C0CFFF
:1023100013821282D7CFFC010590615070400110EA
:10232000D8F7809590958E0F9F1F0895DC0101C00E
:102330006D9341505040E0F70895FC0161507040AA
:1023400001900110D8F7809590958E0F9F1F0895EA
:102350000F931F93CF93DF93182F092FEB018B81DE
:1023600081FD09C01FEF0FEF812F902FDF91CF91DB
:102370001F910F91089582FF14C02E813F818C819F
:102380009D81281739073CF4E881F981CF01019636
:102390009983888310838E819F8101969F838E838A
:1023A000E3CFE885F985812F0995892BA1F3DACF51
:1023B000FA01AA27283051F1203181F1E8946F9376
:1023C0006E7F6E5F7F4F8F4F9F4FAF4FB1E03ED01C
:1023D000B4E03CD0670F781F891F9A1FA11D680FBA
:1023E000791F8A1F911DA11D6A0F711D811D911DED
:1023F000A11D20D009F468943F912AE0269F112462
:102400003019305D3193DEF6CF010895462F4770C5
:10241000405D4193B3E00FD0C9F7F6CF462F4F7020
:10242000405D4A3318F0495D31FD4052419302D07E
:10243000A9F7EACFB4E0A695979587957795679524
:10244000BA95C9F700976105710508959B01AC0124
:102450000A2E06945795479537952795BA95C9F74B
:10246000620F731F841F951FA01D0895052E97FBF3
:102470001EF400940E944D1257FD07D00E949F1237
:1024800007FC03D04EF40C944D12509540953095B6
:1024900021953F4F4F4F5F4F0895909580957095D0
:1024A00061957F4F8F4F9F4F08950E94C112A59F46
:1024B000900DB49F900DA49F800D911D112408953F
:1024C000B7FF0C9455120E945512821B930B08956E
:1024D0002F923F924F925F926F927F928F929F9234
:1024E000AF92BF92CF92DF92EF92FF920F931F9322
:1024F000CF93DF93CDB7DEB7CA1BDB0B0FB6F894D3
:10250000DEBF0FBECDBF09942A88398848885F8412
:102510006E847D848C849B84AA84B984C884DF8083
:10252000EE80FD800C811B81AA81B981CE0FD11D67
:102530000FB6F894DEBF0FBECDBFED010895A1E246
:102540001A2EAA1BBB1BFD010DC0AA1FBB1FEE1F2D
:10255000FF1FA217B307E407F50720F0A21BB30B78
:10256000E40BF50B661F771F881F991F1A9469F7F4
:1025700060957095809590959B01AC01BD01CF0150
:102580000895A29FB001B39FC001A39F700D811D4C
:102590001124911DB29F700D811D1124911D08956C
:0425A000F894FFCFDD
:1025A40000104C2E1703010101010100000000007E
:1025B400FF0320004F4C445F6D73675F6964203DE7
:1025C400202575202020204F4C445F6D73675F6485
:1025D400617461203D2025750D0A004944203D2089
:1025E40025752020202020696448203D2025752061
:1025F40020202069644C203D202575202020207354
:10260400697A65203D20257520202020646174614D
:10261400203D2025750D0A005374617274696E673C
:10262400205352414D20746573742E2E2E00577220
:10263400697465207068617365206572726F723A9F
:10264400206578745F72616D5B2534645D203D2084
:1026540025303258202873686F756C6420626520B9
:1026640025303258290A0052657472696576616CA6
:10267400207068617365206572726F723A206578A4
:10268400745F72616D5B2534645D203D20253032BA
:1026940058202873686F756C642062652025303279
:1026A40058290A005352414D207465737420636F96
:1026B4006D706C657465642077697468200A2534CC
:1026C40064206572726F727320696E207772697408
:1026D4006520706861736520616E64200A25346426
:1026E400206572726F727320696E207265747269EC
:1026F4006576616C2070686173650A0A004A6F79B7
:10270400737469636B3A202533642C202533642069
:10271400202020202020202020546F7563683A2038
:102724002533642C202533640D0A004E4557204779
:10273400414D450053746172740048494748205321
:10274400434F5245530025640025632E2025730012
:1027540053455454494E47530043616C6962726156
:1027640074696F6E004272696768746E6573730092
:10277400446966667563756C747900464A45524EC1
:102784004552205355424D454E5921004D41494E25
:1027940020204D454E55004E65772047616D6500FC
:1027A40053636F72650053657474696E677300498F
:1027B400204D61696E206D656E750056616C75659E
:1027C4003A2025750D0A0043414E5F524543454961
:1027D40056455F4D53473A20202020202020204E8C
:1027E4006F2052582D427566666572732069732096
:1027F40063757272656E746C792066756C6C00001A
:00000001FF
